{
  "contractName": "MarketContract",
  "abi": [
    {
      "constant": false,
      "inputs": [
        {
          "components": [
            {
              "internalType": "uint256",
              "name": "id",
              "type": "uint256"
            },
            {
              "internalType": "uint256",
              "name": "id_seller",
              "type": "uint256"
            },
            {
              "internalType": "string",
              "name": "name",
              "type": "string"
            },
            {
              "internalType": "uint256",
              "name": "price",
              "type": "uint256"
            },
            {
              "internalType": "string",
              "name": "addressHouse",
              "type": "string"
            },
            {
              "internalType": "uint256",
              "name": "surface",
              "type": "uint256"
            },
            {
              "internalType": "string",
              "name": "description",
              "type": "string"
            }
          ],
          "internalType": "struct MarketContract.House",
          "name": "_house",
          "type": "tuple"
        }
      ],
      "name": "addHouseToSeller",
      "outputs": [
        {
          "internalType": "uint256",
          "name": "",
          "type": "uint256"
        }
      ],
      "payable": false,
      "stateMutability": "nonpayable",
      "type": "function"
    },
    {
      "constant": true,
      "inputs": [
        {
          "internalType": "uint256",
          "name": "_id",
          "type": "uint256"
        }
      ],
      "name": "getHouse",
      "outputs": [
        {
          "components": [
            {
              "internalType": "uint256",
              "name": "id",
              "type": "uint256"
            },
            {
              "internalType": "uint256",
              "name": "id_seller",
              "type": "uint256"
            },
            {
              "internalType": "string",
              "name": "name",
              "type": "string"
            },
            {
              "internalType": "uint256",
              "name": "price",
              "type": "uint256"
            },
            {
              "internalType": "string",
              "name": "addressHouse",
              "type": "string"
            },
            {
              "internalType": "uint256",
              "name": "surface",
              "type": "uint256"
            },
            {
              "internalType": "string",
              "name": "description",
              "type": "string"
            }
          ],
          "internalType": "struct MarketContract.House",
          "name": "",
          "type": "tuple"
        }
      ],
      "payable": false,
      "stateMutability": "view",
      "type": "function"
    }
  ],
  "bytecode": "0x608060405234801561001057600080fd5b506108dc806100206000396000f3fe608060405234801561001057600080fd5b50600436106100365760003560e01c80633107c99d1461003b5780634abae0141461006b575b600080fd5b61005560048036036100509190810190610649565b61009b565b6040516100629190610773565b60405180910390f35b61008560048036036100809190810190610608565b610308565b6040516100929190610795565b60405180910390f35b6100a36103c5565b81600683815481106100b157fe5b906000526020600020906007020160000154146100cd57600080fd5b600682815481106100da57fe5b90600052602060002090600702016040518060e00160405290816000820154815260200160018201548152602001600282018054600181600116156101000203166002900480601f0160208091040260200160405190810160405280929190818152602001828054600181600116156101000203166002900480156101a05780601f10610175576101008083540402835291602001916101a0565b820191906000526020600020905b81548152906001019060200180831161018357829003601f168201915b5050505050815260200160038201548152602001600482018054600181600116156101000203166002900480601f01602080910402602001604051908101604052809291908181526020018280546001816001161561010002031660029004801561024c5780601f106102215761010080835404028352916020019161024c565b820191906000526020600020905b81548152906001019060200180831161022f57829003601f168201915b5050505050815260200160058201548152602001600682018054600181600116156101000203166002900480601f0160208091040260200160405190810160405280929190818152602001828054600181600116156101000203166002900480156102f85780601f106102cd576101008083540402835291602001916102f8565b820191906000526020600020905b8154815290600101906020018083116102db57829003601f168201915b5050505050815250509050919050565b6000806006839080600181540180825580915050906001820390600052602060002090600702016000909192909190915060008201518160000155602082015181600101556040820151816002019080519060200190610369929190610402565b50606082015181600301556080820151816004019080519060200190610390929190610402565b5060a0820151816005015560c08201518160060190805190602001906103b7929190610402565b505050905080915050919050565b6040518060e00160405280600081526020016000815260200160608152602001600081526020016060815260200160008152602001606081525090565b828054600181600116156101000203166002900490600052602060002090601f016020900481019282601f1061044357805160ff1916838001178555610471565b82800160010185558215610471579182015b82811115610470578251825591602001919060010190610455565b5b50905061047e9190610482565b5090565b6104a491905b808211156104a0576000816000905550600101610488565b5090565b90565b600082601f8301126104b857600080fd5b81356104cb6104c6826107dd565b6107b0565b915080825260208301602083018583830111156104e757600080fd5b6104f283828461082f565b50505092915050565b600060e0828403121561050d57600080fd5b61051760e06107b0565b90506000610527848285016105f3565b600083015250602061053b848285016105f3565b602083015250604082013567ffffffffffffffff81111561055b57600080fd5b610567848285016104a7565b604083015250606061057b848285016105f3565b606083015250608082013567ffffffffffffffff81111561059b57600080fd5b6105a7848285016104a7565b60808301525060a06105bb848285016105f3565b60a08301525060c082013567ffffffffffffffff8111156105db57600080fd5b6105e7848285016104a7565b60c08301525092915050565b60008135905061060281610882565b92915050565b60006020828403121561061a57600080fd5b600082013567ffffffffffffffff81111561063457600080fd5b610640848285016104fb565b91505092915050565b60006020828403121561065b57600080fd5b6000610669848285016105f3565b91505092915050565b600061067d82610809565b6106878185610814565b935061069781856020860161083e565b6106a081610871565b840191505092915050565b600060e0830160008301516106c36000860182610755565b5060208301516106d66020860182610755565b50604083015184820360408601526106ee8282610672565b91505060608301516107036060860182610755565b506080830151848203608086015261071b8282610672565b91505060a083015161073060a0860182610755565b5060c083015184820360c08601526107488282610672565b9150508091505092915050565b61075e81610825565b82525050565b61076d81610825565b82525050565b6000602082019050818103600083015261078d81846106ab565b905092915050565b60006020820190506107aa6000830184610764565b92915050565b6000604051905081810181811067ffffffffffffffff821117156107d357600080fd5b8060405250919050565b600067ffffffffffffffff8211156107f457600080fd5b601f19601f8301169050602081019050919050565b600081519050919050565b600082825260208201905092915050565b6000819050919050565b82818337600083830152505050565b60005b8381101561085c578082015181840152602081019050610841565b8381111561086b576000848401525b50505050565b6000601f19601f8301169050919050565b61088b81610825565b811461089657600080fd5b5056fea365627a7a7231582073bcf18e928cf9c7b80d2dd46822b63607d290552ad485f83ab6a52f4b03b5736c6578706572696d656e74616cf564736f6c63430005100040",
  "source": "pragma solidity >=0.4.21 <0.7.0;\npragma experimental ABIEncoderV2;\n\n// import \"../models/house.sol\";\n// import \"../models/person.sol\";\n\ncontract MarketContract {\n    struct House {\n        uint id;\n        uint id_seller;\n        string name;\n        uint price;\n        string addressHouse;\n        uint surface;\n        string description;\n    }\n\n    struct Seller {\n        uint id;\n        string name;\n        string addressPerson;\n    }\n\n    struct Buyer {\n        uint id;\n        string name;\n        string addressPerson;\n    }\n    \n    Seller private seller;\n    Buyer private buyer;\n    House[] private house;\n\n    function addHouseToSeller(House memory _house) public returns (uint) {\n        uint id = house.push(_house);\n        return id;\n    }\n\n    function getHouse(uint _id) public view returns (House memory) {\n        require(house[_id].id == _id);\n        return house[_id];\n    }\n\n    function newTransaction(Seller memory _seller, Buyer memory _buyer, uint _idHouse) internal {\n        // 1) recevoir et alimenter les infos du buyer et du seller\n        seller = _seller;\n        buyer = _buyer;\n        // 2) buyer acheter le produit\n        delete house[_idHouse];\n        // 3) vérifier si la somme qui met est égale à la somme qui l'envoie\n        // 4) l'argent du buyer est envoyé au seller et on retire le produit de la liste\n    }\n    \n}",
  "sourcePath": "/home/tibdev/Public/www/dev/solidity-market-moc/contracts/MarketContract.sol",
  "compiler": {
    "name": "solc",
    "version": "0.5.16+commit.9c3226ce.Emscripten.clang"
  },
  "schemaVersion": "3.0.23",
  "updatedAt": "2020-03-12T16:26:56.676Z",
  "networkType": "ethereum",
  "devdoc": {
    "methods": {}
  },
  "userdoc": {
    "methods": {}
  }
}