{
  "contractName": "MarketContract",
  "abi": [
    {
      "anonymous": false,
      "inputs": [
        {
          "indexed": false,
          "internalType": "uint256",
          "name": "",
          "type": "uint256"
        },
        {
          "indexed": false,
          "internalType": "uint256",
          "name": "",
          "type": "uint256"
        }
      ],
      "name": "logData",
      "type": "event"
    },
    {
      "constant": false,
      "inputs": [
        {
          "internalType": "uint256",
          "name": "_id",
          "type": "uint256"
        },
        {
          "internalType": "uint256",
          "name": "_id_seller",
          "type": "uint256"
        },
        {
          "internalType": "string",
          "name": "_name",
          "type": "string"
        },
        {
          "internalType": "uint256",
          "name": "_price",
          "type": "uint256"
        },
        {
          "internalType": "string",
          "name": "_addressHouse",
          "type": "string"
        },
        {
          "internalType": "uint256",
          "name": "_surface",
          "type": "uint256"
        },
        {
          "internalType": "string",
          "name": "_description",
          "type": "string"
        }
      ],
      "name": "addHouseToSeller",
      "outputs": [],
      "payable": false,
      "stateMutability": "nonpayable",
      "type": "function"
    },
    {
      "constant": true,
      "inputs": [],
      "name": "getNumberOfHouse",
      "outputs": [
        {
          "internalType": "uint256",
          "name": "",
          "type": "uint256"
        }
      ],
      "payable": false,
      "stateMutability": "view",
      "type": "function"
    },
    {
      "constant": true,
      "inputs": [
        {
          "internalType": "uint256",
          "name": "_id",
          "type": "uint256"
        }
      ],
      "name": "getHouse",
      "outputs": [
        {
          "components": [
            {
              "internalType": "uint256",
              "name": "id",
              "type": "uint256"
            },
            {
              "internalType": "uint256",
              "name": "id_seller",
              "type": "uint256"
            },
            {
              "internalType": "string",
              "name": "name",
              "type": "string"
            },
            {
              "internalType": "uint256",
              "name": "price",
              "type": "uint256"
            },
            {
              "internalType": "string",
              "name": "addressHouse",
              "type": "string"
            },
            {
              "internalType": "uint256",
              "name": "surface",
              "type": "uint256"
            },
            {
              "internalType": "string",
              "name": "description",
              "type": "string"
            }
          ],
          "internalType": "struct MarketContract.House",
          "name": "",
          "type": "tuple"
        }
      ],
      "payable": false,
      "stateMutability": "view",
      "type": "function"
    },
    {
      "constant": false,
      "inputs": [
        {
          "internalType": "uint256",
          "name": "_id",
          "type": "uint256"
        },
        {
          "internalType": "string",
          "name": "_name",
          "type": "string"
        },
        {
          "internalType": "string",
          "name": "_addressPerson",
          "type": "string"
        },
        {
          "internalType": "bytes",
          "name": "_action",
          "type": "bytes"
        }
      ],
      "name": "setPerson",
      "outputs": [],
      "payable": false,
      "stateMutability": "nonpayable",
      "type": "function"
    },
    {
      "constant": false,
      "inputs": [],
      "name": "newTransaction",
      "outputs": [
        {
          "internalType": "string",
          "name": "",
          "type": "string"
        }
      ],
      "payable": true,
      "stateMutability": "payable",
      "type": "function"
    }
  ],
  "bytecode": "0x608060405234801561001057600080fd5b50610c76806100206000396000f3fe60806040526004361061004a5760003560e01c80633107c99d1461004f578063331940f71461008c578063ab3071b3146100aa578063aef82f54146100d3578063b9e75b95146100fe575b600080fd5b34801561005b57600080fd5b506100766004803603610071919081019061074f565b610127565b6040516100839190610aba565b60405180910390f35b61009461036a565b6040516100a19190610a98565b60405180910390f35b3480156100b657600080fd5b506100d160048036036100cc9190810190610823565b6103a7565b005b3480156100df57600080fd5b506100e86104ae565b6040516100f59190610adc565b60405180910390f35b34801561010a57600080fd5b5061012560048036036101209190810190610778565b6104bb565b005b61012f6105b0565b6006828154811061013c57fe5b90600052602060002090600702016040518060e00160405290816000820154815260200160018201548152602001600282018054600181600116156101000203166002900480601f0160208091040260200160405190810160405280929190818152602001828054600181600116156101000203166002900480156102025780601f106101d757610100808354040283529160200191610202565b820191906000526020600020905b8154815290600101906020018083116101e557829003601f168201915b5050505050815260200160038201548152602001600482018054600181600116156101000203166002900480601f0160208091040260200160405190810160405280929190818152602001828054600181600116156101000203166002900480156102ae5780601f10610283576101008083540402835291602001916102ae565b820191906000526020600020905b81548152906001019060200180831161029157829003601f168201915b5050505050815260200160058201548152602001600682018054600181600116156101000203166002900480601f01602080910402602001604051908101604052809291908181526020018280546001816001161561010002031660029004801561035a5780601f1061032f5761010080835404028352916020019161035a565b820191906000526020600020905b81548152906001019060200180831161033d57829003601f168201915b5050505050815250509050919050565b60606040518060400160405280601081526020017f446f6e65207472616e73616374696f6e00000000000000000000000000000000815250905090565b600060066040518060e001604052808a81526020018981526020018881526020018781526020018681526020018581526020018481525090806001815401808255809150509060018203906000526020600020906007020160009091929091909150600082015181600001556020820151816001015560408201518160020190805190602001906104399291906105ed565b506060820151816003015560808201518160040190805190602001906104609291906105ed565b5060a0820151816005015560c08201518160060190805190602001906104879291906105ed565b50505090508060076000838152602001908152602001600020819055505050505050505050565b6000600680549050905090565b6040516104c790610a83565b604051809103902081805190602001201415610545576040518060600160405280858152602001848152602001838152506000808201518160000155602082015181600101908051906020019061051f9291906105ed565b50604082015181600201908051906020019061053c9291906105ed565b509050506105aa565b60405180606001604052808581526020018481526020018381525060036000820151816000015560208201518160010190805190602001906105889291906105ed565b5060408201518160020190805190602001906105a59291906105ed565b509050505b50505050565b6040518060e00160405280600081526020016000815260200160608152602001600081526020016060815260200160008152602001606081525090565b828054600181600116156101000203166002900490600052602060002090601f016020900481019282601f1061062e57805160ff191683800117855561065c565b8280016001018555821561065c579182015b8281111561065b578251825591602001919060010190610640565b5b509050610669919061066d565b5090565b61068f91905b8082111561068b576000816000905550600101610673565b5090565b90565b600082601f8301126106a357600080fd5b81356106b66106b182610b24565b610af7565b915080825260208301602083018583830111156106d257600080fd5b6106dd838284610bc9565b50505092915050565b600082601f8301126106f757600080fd5b813561070a61070582610b50565b610af7565b9150808252602083016020830185838301111561072657600080fd5b610731838284610bc9565b50505092915050565b60008135905061074981610c1c565b92915050565b60006020828403121561076157600080fd5b600061076f8482850161073a565b91505092915050565b6000806000806080858703121561078e57600080fd5b600061079c8782880161073a565b945050602085013567ffffffffffffffff8111156107b957600080fd5b6107c5878288016106e6565b935050604085013567ffffffffffffffff8111156107e257600080fd5b6107ee878288016106e6565b925050606085013567ffffffffffffffff81111561080b57600080fd5b61081787828801610692565b91505092959194509250565b600080600080600080600060e0888a03121561083e57600080fd5b600061084c8a828b0161073a565b975050602061085d8a828b0161073a565b965050604088013567ffffffffffffffff81111561087a57600080fd5b6108868a828b016106e6565b95505060606108978a828b0161073a565b945050608088013567ffffffffffffffff8111156108b457600080fd5b6108c08a828b016106e6565b93505060a06108d18a828b0161073a565b92505060c088013567ffffffffffffffff8111156108ee57600080fd5b6108fa8a828b016106e6565b91505092959891949750929550565b600061091482610b87565b61091e8185610ba3565b935061092e818560208601610bd8565b61093781610c0b565b840191505092915050565b600061094d82610b7c565b6109578185610b92565b9350610967818560208601610bd8565b61097081610c0b565b840191505092915050565b6000610988600683610bb4565b91507f73656c6c657200000000000000000000000000000000000000000000000000006000830152600682019050919050565b600060e0830160008301516109d36000860182610a65565b5060208301516109e66020860182610a65565b50604083015184820360408601526109fe8282610942565b9150506060830151610a136060860182610a65565b5060808301518482036080860152610a2b8282610942565b91505060a0830151610a4060a0860182610a65565b5060c083015184820360c0860152610a588282610942565b9150508091505092915050565b610a6e81610bbf565b82525050565b610a7d81610bbf565b82525050565b6000610a8e8261097b565b9150819050919050565b60006020820190508181036000830152610ab28184610909565b905092915050565b60006020820190508181036000830152610ad481846109bb565b905092915050565b6000602082019050610af16000830184610a74565b92915050565b6000604051905081810181811067ffffffffffffffff82111715610b1a57600080fd5b8060405250919050565b600067ffffffffffffffff821115610b3b57600080fd5b601f19601f8301169050602081019050919050565b600067ffffffffffffffff821115610b6757600080fd5b601f19601f8301169050602081019050919050565b600081519050919050565b600081519050919050565b600082825260208201905092915050565b600082825260208201905092915050565b600081905092915050565b6000819050919050565b82818337600083830152505050565b60005b83811015610bf6578082015181840152602081019050610bdb565b83811115610c05576000848401525b50505050565b6000601f19601f8301169050919050565b610c2581610bbf565b8114610c3057600080fd5b5056fea365627a7a723158206479b8f755adb0539725ed63668df54ded252bbf0178823730129e64d42d5cc96c6578706572696d656e74616cf564736f6c63430005100040",
  "source": "pragma solidity >=0.4.21 <0.7.0;\npragma experimental ABIEncoderV2;\n\n// import \"../models/house.sol\";\n// import \"../models/person.sol\";\n\ncontract MarketContract {\n    struct House {\n        uint id;\n        uint id_seller;\n        string name;\n        uint price;\n        string addressHouse;\n        uint surface;\n        string description;\n    }\n\n    struct Seller {\n        uint id;\n        string name;\n        string addressPerson;\n    }\n\n    struct Buyer {\n        uint id;\n        string name;\n        string addressPerson;\n    }\n\n    Seller private seller;\n    Buyer private buyer;\n    House[] private house;\n    mapping (uint => uint) houseOwner;\n    event logData(uint, uint);\n\n    function addHouseToSeller(uint _id, uint _id_seller, string memory _name, uint _price,\n    string memory _addressHouse, uint _surface, string memory _description) public {\n        uint id = house.push(House(_id, _id_seller, _name, _price, _addressHouse, _surface, _description));\n        houseOwner[id] = id;\n    }\n\n    function getNumberOfHouse() public view returns (uint) {\n        return house.length;\n    }\n\n    function getHouse(uint _id) public view returns (House memory) {\n        //require(house[_id].id == _id);\n        return house[_id];\n    }\n\n    function setPerson(uint _id, string memory _name, string memory _addressPerson, bytes memory _action) public {\n        if(keccak256(_action) == keccak256('seller')) {\n            seller = Seller(_id, _name, _addressPerson);\n        } else {\n            buyer = Buyer(_id, _name, _addressPerson);\n        }\n    }\n\n    function newTransaction() public payable returns(string memory) {\n       // require(msg.value == house[_idHouse].price);\n       // removeHouse(_idHouse);\n        return \"Done transaction\";\n    }\n\n    function removeHouse(uint _id) internal {\n        uint index = houseOwner[_id];\n        //if(!index) return;\n        house[index] = house[house.length-1];\n        house.length--;\n    }\n\n}\n",
  "sourcePath": "/Users/keviinraj/Documents/workspace/solidity-market-moc/contracts/MarketContract.sol",
  "compiler": {
    "name": "solc",
    "version": "0.5.16+commit.9c3226ce.Emscripten.clang"
  },
  "schemaVersion": "3.0.23",
  "updatedAt": "2020-03-13T09:47:50.398Z",
  "networkType": "ethereum",
  "devdoc": {
    "methods": {}
  },
  "userdoc": {
    "methods": {}
  }
}