{
  "contractName": "MarketContract",
  "abi": [
    {
      "anonymous": false,
      "inputs": [
        {
          "indexed": false,
          "internalType": "uint256",
          "name": "",
          "type": "uint256"
        },
        {
          "indexed": false,
          "internalType": "uint256",
          "name": "",
          "type": "uint256"
        }
      ],
      "name": "logData",
      "type": "event"
    },
    {
      "constant": false,
      "inputs": [
        {
          "internalType": "uint256",
          "name": "_id",
          "type": "uint256"
        },
        {
          "internalType": "uint256",
          "name": "_id_seller",
          "type": "uint256"
        },
        {
          "internalType": "string",
          "name": "_name",
          "type": "string"
        },
        {
          "internalType": "uint256",
          "name": "_price",
          "type": "uint256"
        },
        {
          "internalType": "string",
          "name": "_addressHouse",
          "type": "string"
        },
        {
          "internalType": "uint256",
          "name": "_surface",
          "type": "uint256"
        },
        {
          "internalType": "string",
          "name": "_description",
          "type": "string"
        }
      ],
      "name": "addHouseToSeller",
      "outputs": [],
      "payable": false,
      "stateMutability": "nonpayable",
      "type": "function"
    },
    {
      "constant": true,
      "inputs": [],
      "name": "getNumberOfHouse",
      "outputs": [
        {
          "internalType": "uint256",
          "name": "",
          "type": "uint256"
        }
      ],
      "payable": false,
      "stateMutability": "view",
      "type": "function"
    },
    {
      "constant": true,
      "inputs": [
        {
          "internalType": "uint256",
          "name": "_id",
          "type": "uint256"
        }
      ],
      "name": "getHouse",
      "outputs": [
        {
          "components": [
            {
              "internalType": "uint256",
              "name": "id",
              "type": "uint256"
            },
            {
              "internalType": "uint256",
              "name": "id_seller",
              "type": "uint256"
            },
            {
              "internalType": "string",
              "name": "name",
              "type": "string"
            },
            {
              "internalType": "uint256",
              "name": "price",
              "type": "uint256"
            },
            {
              "internalType": "string",
              "name": "addressHouse",
              "type": "string"
            },
            {
              "internalType": "uint256",
              "name": "surface",
              "type": "uint256"
            },
            {
              "internalType": "string",
              "name": "description",
              "type": "string"
            }
          ],
          "internalType": "struct MarketContract.House",
          "name": "",
          "type": "tuple"
        }
      ],
      "payable": false,
      "stateMutability": "view",
      "type": "function"
    },
    {
      "constant": false,
      "inputs": [
        {
          "internalType": "uint256",
          "name": "_id",
          "type": "uint256"
        },
        {
          "internalType": "string",
          "name": "_name",
          "type": "string"
        },
        {
          "internalType": "string",
          "name": "_addressPerson",
          "type": "string"
        },
        {
          "internalType": "bytes",
          "name": "_action",
          "type": "bytes"
        }
      ],
      "name": "setPerson",
      "outputs": [],
      "payable": false,
      "stateMutability": "nonpayable",
      "type": "function"
    },
    {
      "constant": false,
      "inputs": [
        {
          "internalType": "uint256",
          "name": "_idHouse",
          "type": "uint256"
        },
        {
          "internalType": "uint256",
          "name": "monneyBuyer",
          "type": "uint256"
        }
      ],
      "name": "newTransaction",
      "outputs": [],
      "payable": false,
      "stateMutability": "nonpayable",
      "type": "function"
    }
  ],
  "bytecode": "0x608060405234801561001057600080fd5b50610f0f806100206000396000f3fe608060405234801561001057600080fd5b50600436106100575760003560e01c80633107c99d1461005c578063ab3071b31461008c578063aef82f54146100a8578063b9e75b95146100c6578063faadc18e146100e2575b600080fd5b610076600480360361007191908101906109fa565b6100fe565b6040516100839190610d46565b60405180910390f35b6100a660048036036100a19190810190610b0a565b610341565b005b6100b0610448565b6040516100bd9190610d68565b60405180910390f35b6100e060048036036100db9190810190610a23565b610455565b005b6100fc60048036036100f79190810190610ace565b61054a565b005b6101066106eb565b6006828154811061011357fe5b90600052602060002090600702016040518060e00160405290816000820154815260200160018201548152602001600282018054600181600116156101000203166002900480601f0160208091040260200160405190810160405280929190818152602001828054600181600116156101000203166002900480156101d95780601f106101ae576101008083540402835291602001916101d9565b820191906000526020600020905b8154815290600101906020018083116101bc57829003601f168201915b5050505050815260200160038201548152602001600482018054600181600116156101000203166002900480601f0160208091040260200160405190810160405280929190818152602001828054600181600116156101000203166002900480156102855780601f1061025a57610100808354040283529160200191610285565b820191906000526020600020905b81548152906001019060200180831161026857829003601f168201915b5050505050815260200160058201548152602001600682018054600181600116156101000203166002900480601f0160208091040260200160405190810160405280929190818152602001828054600181600116156101000203166002900480156103315780601f1061030657610100808354040283529160200191610331565b820191906000526020600020905b81548152906001019060200180831161031457829003601f168201915b5050505050815250509050919050565b600060066040518060e001604052808a81526020018981526020018881526020018781526020018681526020018581526020018481525090806001815401808255809150509060018203906000526020600020906007020160009091929091909150600082015181600001556020820151816001015560408201518160020190805190602001906103d3929190610728565b506060820151816003015560808201518160040190805190602001906103fa929190610728565b5060a0820151816005015560c0820151816006019080519060200190610421929190610728565b50505090508060076000838152602001908152602001600020819055505050505050505050565b6000600680549050905090565b60405161046190610d31565b6040518091039020818051906020012014156104df57604051806060016040528085815260200184815260200183815250600080820151816000015560208201518160010190805190602001906104b9929190610728565b5060408201518160020190805190602001906104d6929190610728565b50905050610544565b6040518060600160405280858152602001848152602001838152506003600082015181600001556020820151816001019080519060200190610522929190610728565b50604082015181600201908051906020019061053f929190610728565b509050505b50505050565b7fc192bb8593e6a2a9ee10a766cac435611b2ea31e30ad4daf911edd71c56f36366006838154811061057857fe5b90600052602060002090600702016003015482604051610599929190610d83565b60405180910390a180600683815481106105af57fe5b906000526020600020906007020160030154146105cb57600080fd5b6105d4826105d8565b5050565b60006007600083815260200190815260200160002054905060066001600680549050038154811061060557fe5b90600052602060002090600702016006828154811061062057fe5b90600052602060002090600702016000820154816000015560018201548160010155600282018160020190805460018160011615610100020316600290046106699291906107a8565b50600382015481600301556004820181600401908054600181600116156101000203166002900461069b9291906107a8565b5060058201548160050155600682018160060190805460018160011615610100020316600290046106cd9291906107a8565b5090505060068054809190600190036106e6919061082f565b505050565b6040518060e00160405280600081526020016000815260200160608152602001600081526020016060815260200160008152602001606081525090565b828054600181600116156101000203166002900490600052602060002090601f016020900481019282601f1061076957805160ff1916838001178555610797565b82800160010185558215610797579182015b8281111561079657825182559160200191906001019061077b565b5b5090506107a49190610861565b5090565b828054600181600116156101000203166002900490600052602060002090601f016020900481019282601f106107e1578054855561081e565b8280016001018555821561081e57600052602060002091601f016020900482015b8281111561081d578254825591600101919060010190610802565b5b50905061082b9190610861565b5090565b81548183558181111561085c5760070281600702836000526020600020918201910161085b9190610886565b5b505050565b61088391905b8082111561087f576000816000905550600101610867565b5090565b90565b6108f291905b808211156108ee5760008082016000905560018201600090556002820160006108b591906108f5565b60038201600090556004820160006108cd91906108f5565b60058201600090556006820160006108e591906108f5565b5060070161088c565b5090565b90565b50805460018160011615610100020316600290046000825580601f1061091b575061093a565b601f0160209004906000526020600020908101906109399190610861565b5b50565b600082601f83011261094e57600080fd5b813561096161095c82610dd9565b610dac565b9150808252602083016020830185838301111561097d57600080fd5b610988838284610e62565b50505092915050565b600082601f8301126109a257600080fd5b81356109b56109b082610e05565b610dac565b915080825260208301602083018583830111156109d157600080fd5b6109dc838284610e62565b50505092915050565b6000813590506109f481610eb5565b92915050565b600060208284031215610a0c57600080fd5b6000610a1a848285016109e5565b91505092915050565b60008060008060808587031215610a3957600080fd5b6000610a47878288016109e5565b945050602085013567ffffffffffffffff811115610a6457600080fd5b610a7087828801610991565b935050604085013567ffffffffffffffff811115610a8d57600080fd5b610a9987828801610991565b925050606085013567ffffffffffffffff811115610ab657600080fd5b610ac28782880161093d565b91505092959194509250565b60008060408385031215610ae157600080fd5b6000610aef858286016109e5565b9250506020610b00858286016109e5565b9150509250929050565b600080600080600080600060e0888a031215610b2557600080fd5b6000610b338a828b016109e5565b9750506020610b448a828b016109e5565b965050604088013567ffffffffffffffff811115610b6157600080fd5b610b6d8a828b01610991565b9550506060610b7e8a828b016109e5565b945050608088013567ffffffffffffffff811115610b9b57600080fd5b610ba78a828b01610991565b93505060a0610bb88a828b016109e5565b92505060c088013567ffffffffffffffff811115610bd557600080fd5b610be18a828b01610991565b91505092959891949750929550565b6000610bfb82610e31565b610c058185610e3c565b9350610c15818560208601610e71565b610c1e81610ea4565b840191505092915050565b6000610c36600683610e4d565b91507f73656c6c657200000000000000000000000000000000000000000000000000006000830152600682019050919050565b600060e083016000830151610c816000860182610d13565b506020830151610c946020860182610d13565b5060408301518482036040860152610cac8282610bf0565b9150506060830151610cc16060860182610d13565b5060808301518482036080860152610cd98282610bf0565b91505060a0830151610cee60a0860182610d13565b5060c083015184820360c0860152610d068282610bf0565b9150508091505092915050565b610d1c81610e58565b82525050565b610d2b81610e58565b82525050565b6000610d3c82610c29565b9150819050919050565b60006020820190508181036000830152610d608184610c69565b905092915050565b6000602082019050610d7d6000830184610d22565b92915050565b6000604082019050610d986000830185610d22565b610da56020830184610d22565b9392505050565b6000604051905081810181811067ffffffffffffffff82111715610dcf57600080fd5b8060405250919050565b600067ffffffffffffffff821115610df057600080fd5b601f19601f8301169050602081019050919050565b600067ffffffffffffffff821115610e1c57600080fd5b601f19601f8301169050602081019050919050565b600081519050919050565b600082825260208201905092915050565b600081905092915050565b6000819050919050565b82818337600083830152505050565b60005b83811015610e8f578082015181840152602081019050610e74565b83811115610e9e576000848401525b50505050565b6000601f19601f8301169050919050565b610ebe81610e58565b8114610ec957600080fd5b5056fea365627a7a72315820dd74de02dc6e2b4022b575bff02b49a15018e76088d2911c16366689e2bb53996c6578706572696d656e74616cf564736f6c63430005100040",
  "source": "pragma solidity >=0.4.21 <0.7.0;\npragma experimental ABIEncoderV2;\n\n// import \"../models/house.sol\";\n// import \"../models/person.sol\";\n\ncontract MarketContract {\n    struct House {\n        uint id;\n        uint id_seller;\n        string name;\n        uint price;\n        string addressHouse;\n        uint surface;\n        string description;\n    }\n\n    struct Seller {\n        uint id;\n        string name;\n        string addressPerson;\n    }\n\n    struct Buyer {\n        uint id;\n        string name;\n        string addressPerson;\n    }\n    \n    Seller private seller;\n    Buyer private buyer;\n    House[] private house;\n    mapping (uint => uint) houseOwner;\n    event logData(uint, uint);\n\n    function addHouseToSeller(uint _id, uint _id_seller, string memory _name, uint _price, \n    string memory _addressHouse, uint _surface, string memory _description) public {\n        uint id = house.push(House(_id, _id_seller, _name, _price, _addressHouse, _surface, _description));\n        houseOwner[id] = id;\n    }\n\n    function getNumberOfHouse() public view returns (uint) {\n        return house.length;\n    }\n\n    function getHouse(uint _id) public view returns (House memory) {\n        //require(house[_id].id == _id);\n        return house[_id];\n    }\n\n    function setPerson(uint _id, string memory _name, string memory _addressPerson, bytes memory _action) public {\n        if(keccak256(_action) == keccak256('seller')) {\n            seller = Seller(_id, _name, _addressPerson);\n        } else {\n            buyer = Buyer(_id, _name, _addressPerson);\n        }\n    }\n\n    function newTransaction(uint _idHouse, uint monneyBuyer) external {\n        // 1) vérifier si la somme qui met est égale à la somme qui l'envoie\n        emit logData(house[_idHouse].price, monneyBuyer);\n        require(house[_idHouse].price == monneyBuyer);\n        // 2) buyer acheter le produit\n        removeHouse(_idHouse);\n        // 3) l'argent du buyer est envoyé au seller\n    }\n\n    function removeHouse(uint _id) internal {\n        uint index = houseOwner[_id];\n        //if(!index) return;\n        house[index] = house[house.length-1];\n        house.length--;\n    }\n    \n}",
  "sourcePath": "/home/tibdev/Public/www/dev/solidity-market-moc/contracts/MarketContract.sol",
  "compiler": {
    "name": "solc",
    "version": "0.5.16+commit.9c3226ce.Emscripten.clang"
  },
  "schemaVersion": "3.0.23",
  "updatedAt": "2020-03-12T21:25:29.154Z",
  "networkType": "ethereum",
  "devdoc": {
    "methods": {}
  },
  "userdoc": {
    "methods": {}
  }
}