{
  "contractName": "MarketContract",
  "abi": [
    {
      "constant": false,
      "inputs": [
        {
          "internalType": "uint256",
          "name": "_id",
          "type": "uint256"
        },
        {
          "internalType": "uint256",
          "name": "_id_seller",
          "type": "uint256"
        },
        {
          "internalType": "string",
          "name": "_name",
          "type": "string"
        },
        {
          "internalType": "uint256",
          "name": "_price",
          "type": "uint256"
        },
        {
          "internalType": "string",
          "name": "_addressHouse",
          "type": "string"
        },
        {
          "internalType": "uint256",
          "name": "_surface",
          "type": "uint256"
        },
        {
          "internalType": "string",
          "name": "_description",
          "type": "string"
        }
      ],
      "name": "addHouseToSeller",
      "outputs": [],
      "payable": false,
      "stateMutability": "nonpayable",
      "type": "function"
    },
    {
      "constant": true,
      "inputs": [],
      "name": "getNumberOfHouse",
      "outputs": [
        {
          "internalType": "uint256",
          "name": "",
          "type": "uint256"
        }
      ],
      "payable": false,
      "stateMutability": "view",
      "type": "function"
    },
    {
      "constant": true,
      "inputs": [
        {
          "internalType": "uint256",
          "name": "_id",
          "type": "uint256"
        }
      ],
      "name": "getHouse",
      "outputs": [
        {
          "components": [
            {
              "internalType": "uint256",
              "name": "id",
              "type": "uint256"
            },
            {
              "internalType": "uint256",
              "name": "id_seller",
              "type": "uint256"
            },
            {
              "internalType": "string",
              "name": "name",
              "type": "string"
            },
            {
              "internalType": "uint256",
              "name": "price",
              "type": "uint256"
            },
            {
              "internalType": "string",
              "name": "addressHouse",
              "type": "string"
            },
            {
              "internalType": "uint256",
              "name": "surface",
              "type": "uint256"
            },
            {
              "internalType": "string",
              "name": "description",
              "type": "string"
            }
          ],
          "internalType": "struct MarketContract.House",
          "name": "",
          "type": "tuple"
        }
      ],
      "payable": false,
      "stateMutability": "view",
      "type": "function"
    }
  ],
  "bytecode": "0x608060405234801561001057600080fd5b506108d9806100206000396000f3fe608060405234801561001057600080fd5b50600436106100415760003560e01c80633107c99d14610046578063ab3071b314610076578063aef82f5414610092575b600080fd5b610060600480360361005b9190810190610560565b6100b0565b60405161006d9190610770565b60405180910390f35b610090600480360361008b9190810190610589565b61031d565b005b61009a610408565b6040516100a79190610792565b60405180910390f35b6100b8610415565b81600683815481106100c657fe5b906000526020600020906007020160000154146100e257600080fd5b600682815481106100ef57fe5b90600052602060002090600702016040518060e00160405290816000820154815260200160018201548152602001600282018054600181600116156101000203166002900480601f0160208091040260200160405190810160405280929190818152602001828054600181600116156101000203166002900480156101b55780601f1061018a576101008083540402835291602001916101b5565b820191906000526020600020905b81548152906001019060200180831161019857829003601f168201915b5050505050815260200160038201548152602001600482018054600181600116156101000203166002900480601f0160208091040260200160405190810160405280929190818152602001828054600181600116156101000203166002900480156102615780601f1061023657610100808354040283529160200191610261565b820191906000526020600020905b81548152906001019060200180831161024457829003601f168201915b5050505050815260200160058201548152602001600682018054600181600116156101000203166002900480601f01602080910402602001604051908101604052809291908181526020018280546001816001161561010002031660029004801561030d5780601f106102e25761010080835404028352916020019161030d565b820191906000526020600020905b8154815290600101906020018083116102f057829003601f168201915b5050505050815250509050919050565b60066040518060e001604052808981526020018881526020018781526020018681526020018581526020018481526020018381525090806001815401808255809150509060018203906000526020600020906007020160009091929091909150600082015181600001556020820151816001015560408201518160020190805190602001906103ad929190610452565b506060820151816003015560808201518160040190805190602001906103d4929190610452565b5060a0820151816005015560c08201518160060190805190602001906103fb929190610452565b5050505050505050505050565b6000600680549050905090565b6040518060e00160405280600081526020016000815260200160608152602001600081526020016060815260200160008152602001606081525090565b828054600181600116156101000203166002900490600052602060002090601f016020900481019282601f1061049357805160ff19168380011785556104c1565b828001600101855582156104c1579182015b828111156104c05782518255916020019190600101906104a5565b5b5090506104ce91906104d2565b5090565b6104f491905b808211156104f05760008160009055506001016104d8565b5090565b90565b600082601f83011261050857600080fd5b813561051b610516826107da565b6107ad565b9150808252602083016020830185838301111561053757600080fd5b61054283828461082c565b50505092915050565b60008135905061055a8161087f565b92915050565b60006020828403121561057257600080fd5b60006105808482850161054b565b91505092915050565b600080600080600080600060e0888a0312156105a457600080fd5b60006105b28a828b0161054b565b97505060206105c38a828b0161054b565b965050604088013567ffffffffffffffff8111156105e057600080fd5b6105ec8a828b016104f7565b95505060606105fd8a828b0161054b565b945050608088013567ffffffffffffffff81111561061a57600080fd5b6106268a828b016104f7565b93505060a06106378a828b0161054b565b92505060c088013567ffffffffffffffff81111561065457600080fd5b6106608a828b016104f7565b91505092959891949750929550565b600061067a82610806565b6106848185610811565b935061069481856020860161083b565b61069d8161086e565b840191505092915050565b600060e0830160008301516106c06000860182610752565b5060208301516106d36020860182610752565b50604083015184820360408601526106eb828261066f565b91505060608301516107006060860182610752565b5060808301518482036080860152610718828261066f565b91505060a083015161072d60a0860182610752565b5060c083015184820360c0860152610745828261066f565b9150508091505092915050565b61075b81610822565b82525050565b61076a81610822565b82525050565b6000602082019050818103600083015261078a81846106a8565b905092915050565b60006020820190506107a76000830184610761565b92915050565b6000604051905081810181811067ffffffffffffffff821117156107d057600080fd5b8060405250919050565b600067ffffffffffffffff8211156107f157600080fd5b601f19601f8301169050602081019050919050565b600081519050919050565b600082825260208201905092915050565b6000819050919050565b82818337600083830152505050565b60005b8381101561085957808201518184015260208101905061083e565b83811115610868576000848401525b50505050565b6000601f19601f8301169050919050565b61088881610822565b811461089357600080fd5b5056fea365627a7a723158200e65479e90100a550a5d36dd9025bac137dc9c7db6c60a4409811e598edb9f586c6578706572696d656e74616cf564736f6c63430005100040",
  "source": "pragma solidity >=0.4.21 <0.7.0;\npragma experimental ABIEncoderV2;\n\n// import \"../models/house.sol\";\n// import \"../models/person.sol\";\n\ncontract MarketContract {\n    struct House {\n        uint id;\n        uint id_seller;\n        string name;\n        uint price;\n        string addressHouse;\n        uint surface;\n        string description;\n    }\n\n    struct Seller {\n        uint id;\n        string name;\n        string addressPerson;\n    }\n\n    struct Buyer {\n        uint id;\n        string name;\n        string addressPerson;\n    }\n    \n    Seller private seller;\n    Buyer private buyer;\n    House[] private house;\n\n    function addHouseToSeller(uint _id, uint _id_seller, string memory _name, uint _price, \n    string memory _addressHouse, uint _surface, string memory _description) public {\n        house.push(House(_id, _id_seller, _name, _price, _addressHouse, _surface, _description));\n    }\n\n    function getNumberOfHouse() public view returns (uint) {\n        return house.length;\n    }\n\n    function getHouse(uint _id) public view returns (House memory) {\n        require(house[_id].id == _id);\n        return house[_id];\n    }\n\n    function newTransaction(Seller memory _seller, Buyer memory _buyer, uint _idHouse) internal {\n        // 1) recevoir et alimenter les infos du buyer et du seller\n        seller = _seller;\n        buyer = _buyer;\n        // 2) buyer acheter le produit\n        delete house[_idHouse];\n        // 3) vérifier si la somme qui met est égale à la somme qui l'envoie\n        // 4) l'argent du buyer est envoyé au seller et on retire le produit de la liste\n    }\n    \n}",
  "sourcePath": "/home/tibdev/Public/www/dev/solidity-market-moc/contracts/MarketContract.sol",
  "compiler": {
    "name": "solc",
    "version": "0.5.16+commit.9c3226ce.Emscripten.clang"
  },
  "schemaVersion": "3.0.23",
  "updatedAt": "2020-03-12T16:47:57.593Z",
  "networkType": "ethereum",
  "devdoc": {
    "methods": {}
  },
  "userdoc": {
    "methods": {}
  }
}