{
  "contractName": "MarketContract",
  "abi": [
    {
      "anonymous": false,
      "inputs": [
        {
          "indexed": false,
          "internalType": "uint256",
          "name": "",
          "type": "uint256"
        }
      ],
      "name": "logData",
      "type": "event"
    },
    {
      "constant": false,
      "inputs": [
        {
          "internalType": "uint256",
          "name": "_id",
          "type": "uint256"
        },
        {
          "internalType": "uint256",
          "name": "_id_seller",
          "type": "uint256"
        },
        {
          "internalType": "string",
          "name": "_name",
          "type": "string"
        },
        {
          "internalType": "uint256",
          "name": "_price",
          "type": "uint256"
        },
        {
          "internalType": "string",
          "name": "_addressHouse",
          "type": "string"
        },
        {
          "internalType": "uint256",
          "name": "_surface",
          "type": "uint256"
        },
        {
          "internalType": "string",
          "name": "_description",
          "type": "string"
        }
      ],
      "name": "addHouseToSeller",
      "outputs": [],
      "payable": false,
      "stateMutability": "nonpayable",
      "type": "function"
    },
    {
      "constant": true,
      "inputs": [],
      "name": "getNumberOfHouse",
      "outputs": [
        {
          "internalType": "uint256",
          "name": "",
          "type": "uint256"
        }
      ],
      "payable": false,
      "stateMutability": "view",
      "type": "function"
    },
    {
      "constant": true,
      "inputs": [
        {
          "internalType": "uint256",
          "name": "_id",
          "type": "uint256"
        }
      ],
      "name": "getHouse",
      "outputs": [
        {
          "components": [
            {
              "internalType": "uint256",
              "name": "id",
              "type": "uint256"
            },
            {
              "internalType": "uint256",
              "name": "id_seller",
              "type": "uint256"
            },
            {
              "internalType": "string",
              "name": "name",
              "type": "string"
            },
            {
              "internalType": "uint256",
              "name": "price",
              "type": "uint256"
            },
            {
              "internalType": "string",
              "name": "addressHouse",
              "type": "string"
            },
            {
              "internalType": "uint256",
              "name": "surface",
              "type": "uint256"
            },
            {
              "internalType": "string",
              "name": "description",
              "type": "string"
            }
          ],
          "internalType": "struct MarketContract.House",
          "name": "",
          "type": "tuple"
        }
      ],
      "payable": false,
      "stateMutability": "view",
      "type": "function"
    },
    {
      "constant": false,
      "inputs": [
        {
          "internalType": "uint256",
          "name": "_id",
          "type": "uint256"
        },
        {
          "internalType": "string",
          "name": "_name",
          "type": "string"
        },
        {
          "internalType": "string",
          "name": "_addressPerson",
          "type": "string"
        },
        {
          "internalType": "bytes",
          "name": "_action",
          "type": "bytes"
        }
      ],
      "name": "setPerson",
      "outputs": [],
      "payable": false,
      "stateMutability": "nonpayable",
      "type": "function"
    },
    {
      "constant": false,
      "inputs": [
        {
          "internalType": "uint256",
          "name": "_idHouse",
          "type": "uint256"
        }
      ],
      "name": "newTransaction",
      "outputs": [
        {
          "internalType": "string",
          "name": "",
          "type": "string"
        }
      ],
      "payable": true,
      "stateMutability": "payable",
      "type": "function"
    }
  ],
  "bytecode": "0x608060405234801561001057600080fd5b50611100806100206000396000f3fe60806040526004361061004a5760003560e01c80633107c99d1461004f5780636bd111171461008c578063ab3071b3146100bc578063aef82f54146100e5578063b9e75b9514610110575b600080fd5b34801561005b57600080fd5b5061007660048036036100719190810190610bd9565b610139565b6040516100839190610f44565b60405180910390f35b6100a660048036036100a19190810190610bd9565b61037c565b6040516100b39190610f22565b60405180910390f35b3480156100c857600080fd5b506100e360048036036100de9190810190610cad565b610458565b005b3480156100f157600080fd5b506100fa6105d3565b6040516101079190610f66565b60405180910390f35b34801561011c57600080fd5b5061013760048036036101329190810190610c02565b6105e0565b005b6101416109d1565b6006828154811061014e57fe5b90600052602060002090600702016040518060e00160405290816000820154815260200160018201548152602001600282018054600181600116156101000203166002900480601f0160208091040260200160405190810160405280929190818152602001828054600181600116156101000203166002900480156102145780601f106101e957610100808354040283529160200191610214565b820191906000526020600020905b8154815290600101906020018083116101f757829003601f168201915b5050505050815260200160038201548152602001600482018054600181600116156101000203166002900480601f0160208091040260200160405190810160405280929190818152602001828054600181600116156101000203166002900480156102c05780601f10610295576101008083540402835291602001916102c0565b820191906000526020600020905b8154815290600101906020018083116102a357829003601f168201915b5050505050815260200160058201548152602001600682018054600181600116156101000203166002900480601f01602080910402602001604051908101604052809291908181526020018280546001816001161561010002031660029004801561036c5780601f106103415761010080835404028352916020019161036c565b820191906000526020600020905b81548152906001019060200180831161034f57829003601f168201915b5050505050815250509050919050565b60606006828154811061038b57fe5b90600052602060002090600702016003015434146103a857600080fd5b60006103b261072b565b73ffffffffffffffffffffffffffffffffffffffff1690508073ffffffffffffffffffffffffffffffffffffffff166108fc349081150290604051600060405180830381858888f19350505050158015610410573d6000803e3d6000fd5b5061041a836108f5565b6040518060400160405280601081526020017f446f6e65207472616e73616374696f6e00000000000000000000000000000000815250915050919050565b6000600160066040518060e001604052808b81526020018a81526020018981526020018881526020018781526020018681526020018581525090806001815401808255809150509060018203906000526020600020906007020160009091929091909150600082015181600001556020820151816001015560408201518160020190805190602001906104ec929190610a0e565b50606082015181600301556080820151816004019080519060200190610513929190610a0e565b5060a0820151816005015560c082015181600601908051906020019061053a929190610a0e565b5050500390507fb3b2bf2bcb0fe2909178caa857c5e5ac5a2303c1456545350cd8fa64dd1289d98160405161056f9190610f66565b60405180910390a1336007600083815260200190815260200160002060006101000a81548173ffffffffffffffffffffffffffffffffffffffff021916908373ffffffffffffffffffffffffffffffffffffffff1602179055505050505050505050565b6000600680549050905090565b6040516105ec90610f0d565b60405180910390208180519060200120141561066a5760405180606001604052808581526020018481526020018381525060008082015181600001556020820151816001019080519060200190610644929190610a0e565b506040820151816002019080519060200190610661929190610a0e565b50905050610725565b60405180606001604052808581526020018481526020018381525060036000820151816000015560208201518160010190805190602001906106ad929190610a0e565b5060408201518160020190805190602001906106ca929190610a0e565b5090505033600860008060000154815260200190815260200160002060006101000a81548173ffffffffffffffffffffffffffffffffffffffff021916908373ffffffffffffffffffffffffffffffffffffffff1602179055505b50505050565b60008060036001018054600181600116156101000203166002900490501161075257600080fd5b61075a610a8e565b600360405180606001604052908160008201548152602001600182018054600181600116156101000203166002900480601f01602080910402602001604051908101604052809291908181526020018280546001816001161561010002031660029004801561080a5780601f106107df5761010080835404028352916020019161080a565b820191906000526020600020905b8154815290600101906020018083116107ed57829003601f168201915b50505050508152602001600282018054600181600116156101000203166002900480601f0160208091040260200160405190810160405280929190818152602001828054600181600116156101000203166002900480156108ac5780601f10610881576101008083540402835291602001916108ac565b820191906000526020600020905b81548152906001019060200180831161088f57829003601f168201915b5050505050815250509050600860008260000151815260200190815260200160002060009054906101000a900473ffffffffffffffffffffffffffffffffffffffff1691505090565b3373ffffffffffffffffffffffffffffffffffffffff166007600083815260200190815260200160002060009054906101000a900473ffffffffffffffffffffffffffffffffffffffff1673ffffffffffffffffffffffffffffffffffffffff161461096057600080fd5b6006818154811061096d57fe5b9060005260206000209060070201600080820160009055600182016000905560028201600061099c9190610aaf565b60038201600090556004820160006109b49190610aaf565b60058201600090556006820160006109cc9190610aaf565b505050565b6040518060e00160405280600081526020016000815260200160608152602001600081526020016060815260200160008152602001606081525090565b828054600181600116156101000203166002900490600052602060002090601f016020900481019282601f10610a4f57805160ff1916838001178555610a7d565b82800160010185558215610a7d579182015b82811115610a7c578251825591602001919060010190610a61565b5b509050610a8a9190610af7565b5090565b60405180606001604052806000815260200160608152602001606081525090565b50805460018160011615610100020316600290046000825580601f10610ad55750610af4565b601f016020900490600052602060002090810190610af39190610af7565b5b50565b610b1991905b80821115610b15576000816000905550600101610afd565b5090565b90565b600082601f830112610b2d57600080fd5b8135610b40610b3b82610fae565b610f81565b91508082526020830160208301858383011115610b5c57600080fd5b610b67838284611053565b50505092915050565b600082601f830112610b8157600080fd5b8135610b94610b8f82610fda565b610f81565b91508082526020830160208301858383011115610bb057600080fd5b610bbb838284611053565b50505092915050565b600081359050610bd3816110a6565b92915050565b600060208284031215610beb57600080fd5b6000610bf984828501610bc4565b91505092915050565b60008060008060808587031215610c1857600080fd5b6000610c2687828801610bc4565b945050602085013567ffffffffffffffff811115610c4357600080fd5b610c4f87828801610b70565b935050604085013567ffffffffffffffff811115610c6c57600080fd5b610c7887828801610b70565b925050606085013567ffffffffffffffff811115610c9557600080fd5b610ca187828801610b1c565b91505092959194509250565b600080600080600080600060e0888a031215610cc857600080fd5b6000610cd68a828b01610bc4565b9750506020610ce78a828b01610bc4565b965050604088013567ffffffffffffffff811115610d0457600080fd5b610d108a828b01610b70565b9550506060610d218a828b01610bc4565b945050608088013567ffffffffffffffff811115610d3e57600080fd5b610d4a8a828b01610b70565b93505060a0610d5b8a828b01610bc4565b92505060c088013567ffffffffffffffff811115610d7857600080fd5b610d848a828b01610b70565b91505092959891949750929550565b6000610d9e82611011565b610da8818561102d565b9350610db8818560208601611062565b610dc181611095565b840191505092915050565b6000610dd782611006565b610de1818561101c565b9350610df1818560208601611062565b610dfa81611095565b840191505092915050565b6000610e1260068361103e565b91507f73656c6c657200000000000000000000000000000000000000000000000000006000830152600682019050919050565b600060e083016000830151610e5d6000860182610eef565b506020830151610e706020860182610eef565b5060408301518482036040860152610e888282610dcc565b9150506060830151610e9d6060860182610eef565b5060808301518482036080860152610eb58282610dcc565b91505060a0830151610eca60a0860182610eef565b5060c083015184820360c0860152610ee28282610dcc565b9150508091505092915050565b610ef881611049565b82525050565b610f0781611049565b82525050565b6000610f1882610e05565b9150819050919050565b60006020820190508181036000830152610f3c8184610d93565b905092915050565b60006020820190508181036000830152610f5e8184610e45565b905092915050565b6000602082019050610f7b6000830184610efe565b92915050565b6000604051905081810181811067ffffffffffffffff82111715610fa457600080fd5b8060405250919050565b600067ffffffffffffffff821115610fc557600080fd5b601f19601f8301169050602081019050919050565b600067ffffffffffffffff821115610ff157600080fd5b601f19601f8301169050602081019050919050565b600081519050919050565b600081519050919050565b600082825260208201905092915050565b600082825260208201905092915050565b600081905092915050565b6000819050919050565b82818337600083830152505050565b60005b83811015611080578082015181840152602081019050611065565b8381111561108f576000848401525b50505050565b6000601f19601f8301169050919050565b6110af81611049565b81146110ba57600080fd5b5056fea365627a7a723158202cf76e5ff5e50d826d4234f05480013f36c1d11e4bec29bf74d70a856452a59e6c6578706572696d656e74616cf564736f6c63430005100040",
  "source": "pragma solidity >=0.4.21 <0.7.0;\npragma experimental ABIEncoderV2;\n\n// import \"../models/house.sol\";\n// import \"../models/person.sol\";\n\ncontract MarketContract {\n    struct House {\n        uint id;\n        uint id_seller;\n        string name;\n        uint price;\n        string addressHouse;\n        uint surface;\n        string description;\n    }\n\n    struct Seller {\n        uint id;\n        string name;\n        string addressPerson;\n    }\n\n    struct Buyer {\n        uint id;\n        string name;\n        string addressPerson;\n    }\n\n    Seller private seller;\n    Buyer private buyer;\n    House[] private house;\n    mapping (uint => address) houseOwner;\n    mapping (uint => address) from;\n    mapping (uint => address) to;\n    event logData(uint);\n\n    function addHouseToSeller(uint _id, uint _id_seller, string memory _name, uint _price,\n    string memory _addressHouse, uint _surface, string memory _description) public {\n        uint id = house.push(House(_id, _id_seller, _name, _price, _addressHouse, _surface, _description)) - 1;\n        emit logData(id);\n        houseOwner[id] = msg.sender;\n    }\n\n    function getNumberOfHouse() public view returns (uint) {\n        return house.length;\n    }\n\n    function getHouse(uint _id) public view returns (House memory) {\n        return house[_id];\n    }\n\n    function setPerson(uint _id, string memory _name, string memory _addressPerson, bytes memory _action) public {\n        if(keccak256(_action) == keccak256('seller')) {\n            seller = Seller(_id, _name, _addressPerson);\n        } else {\n            buyer = Buyer(_id, _name, _addressPerson);\n            from[seller.id] = msg.sender;\n        }\n    }\n\n    function getAdressBuyer() internal view returns (address) {\n        require(bytes(buyer.name).length > 0);\n        Buyer memory _buyer = buyer;\n        return from[_buyer.id];\n    }\n\n    function newTransaction(uint _idHouse) public payable returns(string memory) {\n       require(msg.value == house[_idHouse].price);\n       address payable _buyerAdress = address(uint(getAdressBuyer()));\n       _buyerAdress.transfer(msg.value);\n       removeHouse(_idHouse);\n       return \"Done transaction\";\n    }\n\n    function removeHouse(uint _id) internal {\n        require(houseOwner[_id] == msg.sender);\n        delete house[_id];\n    }\n}\n",
  "sourcePath": "/home/tibdev/Public/www/dev/solidity-market-moc/contracts/MarketContract.sol",
  "compiler": {
    "name": "solc",
    "version": "0.5.16+commit.9c3226ce.Emscripten.clang"
  },
  "schemaVersion": "3.0.23",
  "updatedAt": "2020-03-13T12:06:34.493Z",
  "networkType": "ethereum",
  "devdoc": {
    "methods": {}
  },
  "userdoc": {
    "methods": {}
  }
}