{
  "contractName": "MarketContract",
  "abi": [
    {
      "anonymous": false,
      "inputs": [
        {
          "components": [
            {
              "internalType": "string",
              "name": "tp",
              "type": "string"
            },
            {
              "internalType": "uint256",
              "name": "price",
              "type": "uint256"
            },
            {
              "internalType": "string",
              "name": "addressHouse",
              "type": "string"
            },
            {
              "internalType": "uint256",
              "name": "surface",
              "type": "uint256"
            },
            {
              "internalType": "string",
              "name": "description",
              "type": "string"
            }
          ],
          "indexed": false,
          "internalType": "struct MarketContract.House[]",
          "name": "",
          "type": "tuple[]"
        }
      ],
      "name": "logData",
      "type": "event"
    },
    {
      "constant": false,
      "inputs": [
        {
          "internalType": "string",
          "name": "_tp",
          "type": "string"
        },
        {
          "internalType": "uint256",
          "name": "_price",
          "type": "uint256"
        },
        {
          "internalType": "string",
          "name": "_addressHouse",
          "type": "string"
        },
        {
          "internalType": "uint256",
          "name": "_surface",
          "type": "uint256"
        },
        {
          "internalType": "string",
          "name": "_description",
          "type": "string"
        }
      ],
      "name": "addHouseToSeller",
      "outputs": [],
      "payable": false,
      "stateMutability": "nonpayable",
      "type": "function"
    },
    {
      "constant": true,
      "inputs": [],
      "name": "getNumberOfHouse",
      "outputs": [
        {
          "internalType": "uint256",
          "name": "",
          "type": "uint256"
        }
      ],
      "payable": false,
      "stateMutability": "view",
      "type": "function"
    },
    {
      "constant": true,
      "inputs": [
        {
          "internalType": "uint256",
          "name": "_id",
          "type": "uint256"
        }
      ],
      "name": "getHouse",
      "outputs": [
        {
          "components": [
            {
              "internalType": "string",
              "name": "tp",
              "type": "string"
            },
            {
              "internalType": "uint256",
              "name": "price",
              "type": "uint256"
            },
            {
              "internalType": "string",
              "name": "addressHouse",
              "type": "string"
            },
            {
              "internalType": "uint256",
              "name": "surface",
              "type": "uint256"
            },
            {
              "internalType": "string",
              "name": "description",
              "type": "string"
            }
          ],
          "internalType": "struct MarketContract.House",
          "name": "",
          "type": "tuple"
        }
      ],
      "payable": false,
      "stateMutability": "view",
      "type": "function"
    },
    {
      "constant": true,
      "inputs": [],
      "name": "getHouses",
      "outputs": [
        {
          "components": [
            {
              "internalType": "string",
              "name": "tp",
              "type": "string"
            },
            {
              "internalType": "uint256",
              "name": "price",
              "type": "uint256"
            },
            {
              "internalType": "string",
              "name": "addressHouse",
              "type": "string"
            },
            {
              "internalType": "uint256",
              "name": "surface",
              "type": "uint256"
            },
            {
              "internalType": "string",
              "name": "description",
              "type": "string"
            }
          ],
          "internalType": "struct MarketContract.House[]",
          "name": "",
          "type": "tuple[]"
        }
      ],
      "payable": false,
      "stateMutability": "view",
      "type": "function"
    },
    {
      "constant": true,
      "inputs": [],
      "name": "getTransaction",
      "outputs": [
        {
          "components": [
            {
              "internalType": "uint256",
              "name": "buyerId",
              "type": "uint256"
            },
            {
              "internalType": "uint256",
              "name": "sellerId",
              "type": "uint256"
            },
            {
              "components": [
                {
                  "internalType": "string",
                  "name": "tp",
                  "type": "string"
                },
                {
                  "internalType": "uint256",
                  "name": "price",
                  "type": "uint256"
                },
                {
                  "internalType": "string",
                  "name": "addressHouse",
                  "type": "string"
                },
                {
                  "internalType": "uint256",
                  "name": "surface",
                  "type": "uint256"
                },
                {
                  "internalType": "string",
                  "name": "description",
                  "type": "string"
                }
              ],
              "internalType": "struct MarketContract.House",
              "name": "house",
              "type": "tuple"
            },
            {
              "internalType": "uint256",
              "name": "date",
              "type": "uint256"
            }
          ],
          "internalType": "struct MarketContract.Transaction",
          "name": "",
          "type": "tuple"
        }
      ],
      "payable": false,
      "stateMutability": "view",
      "type": "function"
    },
    {
      "constant": false,
      "inputs": [
        {
          "internalType": "uint256",
          "name": "_id",
          "type": "uint256"
        },
        {
          "internalType": "string",
          "name": "_name",
          "type": "string"
        },
        {
          "internalType": "string",
          "name": "_addressPerson",
          "type": "string"
        },
        {
          "internalType": "bytes",
          "name": "_action",
          "type": "bytes"
        }
      ],
      "name": "setPerson",
      "outputs": [],
      "payable": false,
      "stateMutability": "nonpayable",
      "type": "function"
    },
    {
      "constant": false,
      "inputs": [
        {
          "internalType": "uint256",
          "name": "_idHouse",
          "type": "uint256"
        }
      ],
      "name": "newTransaction",
      "outputs": [
        {
          "components": [
            {
              "internalType": "uint256",
              "name": "buyerId",
              "type": "uint256"
            },
            {
              "internalType": "uint256",
              "name": "sellerId",
              "type": "uint256"
            },
            {
              "components": [
                {
                  "internalType": "string",
                  "name": "tp",
                  "type": "string"
                },
                {
                  "internalType": "uint256",
                  "name": "price",
                  "type": "uint256"
                },
                {
                  "internalType": "string",
                  "name": "addressHouse",
                  "type": "string"
                },
                {
                  "internalType": "uint256",
                  "name": "surface",
                  "type": "uint256"
                },
                {
                  "internalType": "string",
                  "name": "description",
                  "type": "string"
                }
              ],
              "internalType": "struct MarketContract.House",
              "name": "house",
              "type": "tuple"
            },
            {
              "internalType": "uint256",
              "name": "date",
              "type": "uint256"
            }
          ],
          "internalType": "struct MarketContract.Transaction",
          "name": "",
          "type": "tuple"
        }
      ],
      "payable": true,
      "stateMutability": "payable",
      "type": "function"
    }
  ],
  "bytecode": "0x608060405234801561001057600080fd5b50611d9d806100206000396000f3fe6080604052600436106100705760003560e01c80636bd111171161004e5780636bd1111714610106578063aef82f5414610136578063b9e75b9514610161578063fd5f33ec1461018a57610070565b80633107c99d146100755780634cf6c4c7146100b257806359705f81146100db575b600080fd5b34801561008157600080fd5b5061009c600480360361009791908101906115c7565b6101b5565b6040516100a99190611b2f565b60405180910390f35b3480156100be57600080fd5b506100d960048036036100d49190810190611508565b6103e4565b005b3480156100e757600080fd5b506100f0610506565b6040516100fd9190611b51565b60405180910390f35b610120600480360361011b91908101906115c7565b61074c565b60405161012d9190611b51565b60405180910390f35b34801561014257600080fd5b5061014b6107d5565b6040516101589190611b73565b60405180910390f35b34801561016d57600080fd5b50610188600480360361018391908101906115f0565b6107e2565b005b34801561019657600080fd5b5061019f61092d565b6040516101ac9190611aeb565b60405180910390f35b6101bd611199565b600e82815481106101ca57fe5b90600052602060002090600502016040518060a0016040529081600082018054600181600116156101000203166002900480601f01602080910402602001604051908101604052809291908181526020018280546001816001161561010002031660029004801561027c5780601f106102515761010080835404028352916020019161027c565b820191906000526020600020905b81548152906001019060200180831161025f57829003601f168201915b5050505050815260200160018201548152602001600282018054600181600116156101000203166002900480601f0160208091040260200160405190810160405280929190818152602001828054600181600116156101000203166002900480156103285780601f106102fd57610100808354040283529160200191610328565b820191906000526020600020905b81548152906001019060200180831161030b57829003601f168201915b5050505050815260200160038201548152602001600482018054600181600116156101000203166002900480601f0160208091040260200160405190810160405280929190818152602001828054600181600116156101000203166002900480156103d45780601f106103a9576101008083540402835291602001916103d4565b820191906000526020600020905b8154815290600101906020018083116103b757829003601f168201915b5050505050815250509050919050565b60006001600e6040518060a00160405280898152602001888152602001878152602001868152602001858152509080600181540180825580915050906001820390600052602060002090600502016000909192909190915060008201518160000190805190602001906104589291906111c8565b5060208201518160010155604082015181600201908051906020019061047f9291906111c8565b506060820151816003015560808201518160040190805190602001906104a69291906111c8565b50505003905033600f600083815260200190815260200160002060006101000a81548173ffffffffffffffffffffffffffffffffffffffff021916908373ffffffffffffffffffffffffffffffffffffffff160217905550505050505050565b61050e611248565b60036040518060800160405290816000820154815260200160018201548152602001600282016040518060a0016040529081600082018054600181600116156101000203166002900480601f0160208091040260200160405190810160405280929190818152602001828054600181600116156101000203166002900480156105d85780601f106105ad576101008083540402835291602001916105d8565b820191906000526020600020905b8154815290600101906020018083116105bb57829003601f168201915b5050505050815260200160018201548152602001600282018054600181600116156101000203166002900480601f0160208091040260200160405190810160405280929190818152602001828054600181600116156101000203166002900480156106845780601f1061065957610100808354040283529160200191610684565b820191906000526020600020905b81548152906001019060200180831161066757829003601f168201915b5050505050815260200160038201548152602001600482018054600181600116156101000203166002900480601f0160208091040260200160405190810160405280929190818152602001828054600181600116156101000203166002900480156107305780601f1061070557610100808354040283529160200191610730565b820191906000526020600020905b81548152906001019060200180831161071357829003601f168201915b5050505050815250508152602001600782015481525050905090565b610754611248565b600061075e610b86565b73ffffffffffffffffffffffffffffffffffffffff1690508073ffffffffffffffffffffffffffffffffffffffff166108fc349081150290604051600060405180830381858888f193505050501580156107bc573d6000803e3d6000fd5b506107c683610d2b565b6107cf83611010565b50919050565b6000600e80549050905090565b6040516107ee90611ad6565b60405180910390208180519060200120141561086c57604051806060016040528085815260200184815260200183815250600080820151816000015560208201518160010190805190602001906108469291906111c8565b5060408201518160020190805190602001906108639291906111c8565b50905050610927565b604051806060016040528085815260200184815260200183815250600b6000820151816000015560208201518160010190805190602001906108af9291906111c8565b5060408201518160020190805190602001906108cc9291906111c8565b5090505033601060008060000154815260200190815260200160002060006101000a81548173ffffffffffffffffffffffffffffffffffffffff021916908373ffffffffffffffffffffffffffffffffffffffff1602179055505b50505050565b6060600e805480602002602001604051908101604052809291908181526020016000905b82821015610b7d57838290600052602060002090600502016040518060a0016040529081600082018054600181600116156101000203166002900480601f016020809104026020016040519081016040528092919081815260200182805460018160011615610100020316600290048015610a0d5780601f106109e257610100808354040283529160200191610a0d565b820191906000526020600020905b8154815290600101906020018083116109f057829003601f168201915b5050505050815260200160018201548152602001600282018054600181600116156101000203166002900480601f016020809104026020016040519081016040528092919081815260200182805460018160011615610100020316600290048015610ab95780601f10610a8e57610100808354040283529160200191610ab9565b820191906000526020600020905b815481529060010190602001808311610a9c57829003601f168201915b5050505050815260200160038201548152602001600482018054600181600116156101000203166002900480601f016020809104026020016040519081016040528092919081815260200182805460018160011615610100020316600290048015610b655780601f10610b3a57610100808354040283529160200191610b65565b820191906000526020600020905b815481529060010190602001808311610b4857829003601f168201915b50505050508152505081526020019060010190610951565b50505050905090565b6000610b90611276565b600b60405180606001604052908160008201548152602001600182018054600181600116156101000203166002900480601f016020809104026020016040519081016040528092919081815260200182805460018160011615610100020316600290048015610c405780601f10610c1557610100808354040283529160200191610c40565b820191906000526020600020905b815481529060010190602001808311610c2357829003601f168201915b50505050508152602001600282018054600181600116156101000203166002900480601f016020809104026020016040519081016040528092919081815260200182805460018160011615610100020316600290048015610ce25780601f10610cb757610100808354040283529160200191610ce2565b820191906000526020600020905b815481529060010190602001808311610cc557829003601f168201915b5050505050815250509050601060008260000151815260200190815260200160002060009054906101000a900473ffffffffffffffffffffffffffffffffffffffff1691505090565b6040518060800160405280600b60000154815260200160008001548152602001600e8381548110610d5857fe5b90600052602060002090600502016040518060a0016040529081600082018054600181600116156101000203166002900480601f016020809104026020016040519081016040528092919081815260200182805460018160011615610100020316600290048015610e0a5780601f10610ddf57610100808354040283529160200191610e0a565b820191906000526020600020905b815481529060010190602001808311610ded57829003601f168201915b5050505050815260200160018201548152602001600282018054600181600116156101000203166002900480601f016020809104026020016040519081016040528092919081815260200182805460018160011615610100020316600290048015610eb65780601f10610e8b57610100808354040283529160200191610eb6565b820191906000526020600020905b815481529060010190602001808311610e9957829003601f168201915b5050505050815260200160038201548152602001600482018054600181600116156101000203166002900480601f016020809104026020016040519081016040528092919081815260200182805460018160011615610100020316600290048015610f625780601f10610f3757610100808354040283529160200191610f62565b820191906000526020600020905b815481529060010190602001808311610f4557829003601f168201915b505050505081525050815260200142815250600360008201518160000155602082015181600101556040820151816002016000820151816000019080519060200190610faf9291906111c8565b50602082015181600101556040820151816002019080519060200190610fd69291906111c8565b50606082015181600301556080820151816004019080519060200190610ffd9291906111c8565b5050506060820151816007015590505050565b3373ffffffffffffffffffffffffffffffffffffffff16600f600083815260200190815260200160002060009054906101000a900473ffffffffffffffffffffffffffffffffffffffff1673ffffffffffffffffffffffffffffffffffffffff161461107b57600080fd5b600e6001600e80549050038154811061109057fe5b9060005260206000209060050201600e82815481106110ab57fe5b9060005260206000209060050201600082018160000190805460018160011615610100020316600290046110e0929190611297565b506001820154816001015560028201816002019080546001816001161561010002031660029004611112929190611297565b506003820154816003015560048201816004019080546001816001161561010002031660029004611144929190611297565b50905050600e80548091906001900361115d919061131e565b507fa016c5d7e38324f10773ae329c0f98b88cfe57ae667af79abdd98334b11aeed1600e60405161118e9190611b0d565b60405180910390a150565b6040518060a0016040528060608152602001600081526020016060815260200160008152602001606081525090565b828054600181600116156101000203166002900490600052602060002090601f016020900481019282601f1061120957805160ff1916838001178555611237565b82800160010185558215611237579182015b8281111561123657825182559160200191906001019061121b565b5b5090506112449190611350565b5090565b60405180608001604052806000815260200160008152602001611269611375565b8152602001600081525090565b60405180606001604052806000815260200160608152602001606081525090565b828054600181600116156101000203166002900490600052602060002090601f016020900481019282601f106112d0578054855561130d565b8280016001018555821561130d57600052602060002091601f016020900482015b8281111561130c5782548255916001019190600101906112f1565b5b50905061131a9190611350565b5090565b81548183558181111561134b5760050281600502836000526020600020918201910161134a91906113a4565b5b505050565b61137291905b8082111561136e576000816000905550600101611356565b5090565b90565b6040518060a0016040528060608152602001600081526020016060815260200160008152602001606081525090565b61140091905b808211156113fc57600080820160006113c39190611403565b60018201600090556002820160006113db9190611403565b60038201600090556004820160006113f39190611403565b506005016113aa565b5090565b90565b50805460018160011615610100020316600290046000825580601f106114295750611448565b601f0160209004906000526020600020908101906114479190611350565b5b50565b600082601f83011261145c57600080fd5b813561146f61146a82611bbb565b611b8e565b9150808252602083016020830185838301111561148b57600080fd5b611496838284611cc9565b50505092915050565b600082601f8301126114b057600080fd5b81356114c36114be82611be7565b611b8e565b915080825260208301602083018583830111156114df57600080fd5b6114ea838284611cc9565b50505092915050565b60008135905061150281611d43565b92915050565b600080600080600060a0868803121561152057600080fd5b600086013567ffffffffffffffff81111561153a57600080fd5b6115468882890161149f565b9550506020611557888289016114f3565b945050604086013567ffffffffffffffff81111561157457600080fd5b6115808882890161149f565b9350506060611591888289016114f3565b925050608086013567ffffffffffffffff8111156115ae57600080fd5b6115ba8882890161149f565b9150509295509295909350565b6000602082840312156115d957600080fd5b60006115e7848285016114f3565b91505092915050565b6000806000806080858703121561160657600080fd5b6000611614878288016114f3565b945050602085013567ffffffffffffffff81111561163157600080fd5b61163d8782880161149f565b935050604085013567ffffffffffffffff81111561165a57600080fd5b6116668782880161149f565b925050606085013567ffffffffffffffff81111561168357600080fd5b61168f8782880161144b565b91505092959194509250565b60006116a78383611938565b905092915050565b60006116bb83836119bc565b905092915050565b60006116ce82611c4d565b6116d88185611c88565b9350836020820285016116ea85611c13565b8060005b858110156117265784840389528151611707858261169b565b945061171283611c6e565b925060208a019950506001810190506116ee565b50829750879550505050505092915050565b600061174382611c58565b61174d8185611c88565b93508360208202850161175f85611c23565b8060005b8581101561179a5784840389528161177b85826116af565b945061178683611c7b565b925060208a01995050600181019050611763565b50829750879550505050505092915050565b60006117b782611c63565b6117c18185611c99565b93506117d1818560208601611cd8565b6117da81611d25565b840191505092915050565b60008154600181166000811461180257600181146118285761186c565b607f60028304166118138187611c99565b955060ff19831686526020860193505061186c565b600282046118368187611c99565b955061184185611c38565b60005b8281101561186357815481890152600182019150602081019050611844565b80880195505050505b505092915050565b6000611881600683611caa565b91507f73656c6c657200000000000000000000000000000000000000000000000000006000830152600682019050919050565b600060a08301600083015184820360008601526118d182826117ac565b91505060208301516118e66020860182611ab8565b50604083015184820360408601526118fe82826117ac565b91505060608301516119136060860182611ab8565b506080830151848203608086015261192b82826117ac565b9150508091505092915050565b600060a083016000830151848203600086015261195582826117ac565b915050602083015161196a6020860182611ab8565b506040830151848203604086015261198282826117ac565b91505060608301516119976060860182611ab8565b50608083015184820360808601526119af82826117ac565b9150508091505092915050565b600060a08301600080840185830360008701526119d983826117e5565b925050600184015490506119ec81611d0b565b6119f96020870182611ab8565b50600284018583036040870152611a1083826117e5565b92505060038401549050611a2381611d0b565b611a306060870182611ab8565b50600484018583036080870152611a4783826117e5565b925050819250505092915050565b6000608083016000830151611a6d6000860182611ab8565b506020830151611a806020860182611ab8565b5060408301518482036040860152611a988282611938565b9150506060830151611aad6060860182611ab8565b508091505092915050565b611ac181611cbf565b82525050565b611ad081611cbf565b82525050565b6000611ae182611874565b9150819050919050565b60006020820190508181036000830152611b0581846116c3565b905092915050565b60006020820190508181036000830152611b278184611738565b905092915050565b60006020820190508181036000830152611b4981846118b4565b905092915050565b60006020820190508181036000830152611b6b8184611a55565b905092915050565b6000602082019050611b886000830184611ac7565b92915050565b6000604051905081810181811067ffffffffffffffff82111715611bb157600080fd5b8060405250919050565b600067ffffffffffffffff821115611bd257600080fd5b601f19601f8301169050602081019050919050565b600067ffffffffffffffff821115611bfe57600080fd5b601f19601f8301169050602081019050919050565b6000819050602082019050919050565b60008190508160005260206000209050919050565b60008190508160005260206000209050919050565b600081519050919050565b600081549050919050565b600081519050919050565b6000602082019050919050565b6000600582019050919050565b600082825260208201905092915050565b600082825260208201905092915050565b600081905092915050565b6000819050919050565b6000819050919050565b82818337600083830152505050565b60005b83811015611cf6578082015181840152602081019050611cdb565b83811115611d05576000848401525b50505050565b6000611d1e611d1983611d36565b611cb5565b9050919050565b6000601f19601f8301169050919050565b60008160001c9050919050565b611d4c81611cbf565b8114611d5757600080fd5b5056fea365627a7a7231582030c33b000955d296c194c0bd2e632ed4b4344ad2668768e61906f345ff3b2c7f6c6578706572696d656e74616cf564736f6c63430005100040",
  "source": "pragma solidity >=0.4.21 <0.7.0;\npragma experimental ABIEncoderV2;\n\n// import \"../models/house.sol\";\n// import \"../models/person.sol\";\n\ncontract MarketContract {\n    struct House {\n        string tp;\n        uint price;\n        string addressHouse;\n        uint surface;\n        string description;\n    }\n\n    struct Transaction {\n        uint buyerId;\n        uint sellerId;\n        House house;\n        uint date;\n    }\n\n    struct Seller {\n        uint id;\n        string name;\n        string addressPerson;\n    }\n\n    struct Buyer {\n        uint id;\n        string name;\n        string addressPerson;\n    }\n\n    Seller private seller;\n    Transaction private transaction;\n    Buyer private buyer;\n    House[] private house;\n    mapping (uint => address) houseOwner;\n    mapping (uint => address) from;\n    mapping (uint => address) to;\n    event logData(House[]);\n\n    function addHouseToSeller(string memory _tp, uint _price,\n    string memory _addressHouse, uint _surface, string memory _description) public {\n        uint id = house.push(House(_tp, _price, _addressHouse, _surface, _description)) - 1;\n        houseOwner[id] = msg.sender;\n    }\n\n    function getNumberOfHouse() public view returns (uint) {\n        return house.length;\n    }\n\n    function getHouse(uint _id) public view returns (House memory) {\n        return house[_id];\n    }\n\n    function getHouses() external view returns (House[] memory) {\n        return house;\n    }\n\n    function getTransaction() external view returns (Transaction memory) {\n        return transaction;\n    }\n\n    function setTransaction(uint _idHouse) internal {\n        transaction = Transaction(buyer.id, seller.id, house[_idHouse], now);\n    }\n\n    function setPerson(uint _id, string memory _name, string memory _addressPerson, bytes memory _action) public {\n        if(keccak256(_action) == keccak256('seller')) {\n            seller = Seller(_id, _name, _addressPerson);\n        } else {\n            buyer = Buyer(_id, _name, _addressPerson);\n            from[seller.id] = msg.sender;\n        }\n    }\n\n    function getAdressBuyer() internal view returns (address) {\n        //require(bytes(buyer.name).length > 0);\n        Buyer memory _buyer = buyer;\n        return from[_buyer.id];\n    }\n\n    function newTransaction(uint _idHouse) public payable returns(Transaction memory) {\n       //require(msg.value == house[_idHouse].price);\n       address payable _buyerAdress = address(uint(getAdressBuyer()));\n       _buyerAdress.transfer(msg.value);\n       setTransaction(_idHouse);\n       removeHouse(_idHouse);\n    }\n\n    function removeHouse(uint _id) internal {\n        require(houseOwner[_id] == msg.sender);\n        house[_id] = house[house.length-1];\n        house.length--;\n        emit logData(house);\n    }\n}\n",
  "sourcePath": "/home/tibdev/Public/www/dev/solidity-market-moc/contracts/MarketContract.sol",
  "compiler": {
    "name": "solc",
    "version": "0.5.16+commit.9c3226ce.Emscripten.clang"
  },
  "schemaVersion": "3.0.23",
  "updatedAt": "2020-03-13T15:24:10.286Z",
  "networkType": "ethereum",
  "devdoc": {
    "methods": {}
  },
  "userdoc": {
    "methods": {}
  }
}