{
  "contractName": "MarketContract",
  "abi": [
    {
      "anonymous": false,
      "inputs": [
        {
          "components": [
            {
              "internalType": "uint256",
              "name": "buyerId",
              "type": "uint256"
            },
            {
              "internalType": "uint256",
              "name": "sellerId",
              "type": "uint256"
            },
            {
              "components": [
                {
                  "internalType": "string",
                  "name": "tp",
                  "type": "string"
                },
                {
                  "internalType": "uint256",
                  "name": "price",
                  "type": "uint256"
                },
                {
                  "internalType": "string",
                  "name": "addressHouse",
                  "type": "string"
                },
                {
                  "internalType": "uint256",
                  "name": "surface",
                  "type": "uint256"
                },
                {
                  "internalType": "string",
                  "name": "description",
                  "type": "string"
                }
              ],
              "internalType": "struct MarketContract.House",
              "name": "house",
              "type": "tuple"
            },
            {
              "internalType": "uint256",
              "name": "date",
              "type": "uint256"
            }
          ],
          "indexed": false,
          "internalType": "struct MarketContract.Transaction",
          "name": "",
          "type": "tuple"
        }
      ],
      "name": "logData",
      "type": "event"
    },
    {
      "constant": false,
      "inputs": [
        {
          "internalType": "string",
          "name": "_tp",
          "type": "string"
        },
        {
          "internalType": "uint256",
          "name": "_price",
          "type": "uint256"
        },
        {
          "internalType": "string",
          "name": "_addressHouse",
          "type": "string"
        },
        {
          "internalType": "uint256",
          "name": "_surface",
          "type": "uint256"
        },
        {
          "internalType": "string",
          "name": "_description",
          "type": "string"
        }
      ],
      "name": "addHouseToSeller",
      "outputs": [],
      "payable": false,
      "stateMutability": "nonpayable",
      "type": "function"
    },
    {
      "constant": true,
      "inputs": [],
      "name": "getNumberOfHouse",
      "outputs": [
        {
          "internalType": "uint256",
          "name": "",
          "type": "uint256"
        }
      ],
      "payable": false,
      "stateMutability": "view",
      "type": "function"
    },
    {
      "constant": true,
      "inputs": [
        {
          "internalType": "uint256",
          "name": "_id",
          "type": "uint256"
        }
      ],
      "name": "getHouse",
      "outputs": [
        {
          "components": [
            {
              "internalType": "string",
              "name": "tp",
              "type": "string"
            },
            {
              "internalType": "uint256",
              "name": "price",
              "type": "uint256"
            },
            {
              "internalType": "string",
              "name": "addressHouse",
              "type": "string"
            },
            {
              "internalType": "uint256",
              "name": "surface",
              "type": "uint256"
            },
            {
              "internalType": "string",
              "name": "description",
              "type": "string"
            }
          ],
          "internalType": "struct MarketContract.House",
          "name": "",
          "type": "tuple"
        }
      ],
      "payable": false,
      "stateMutability": "view",
      "type": "function"
    },
    {
      "constant": true,
      "inputs": [],
      "name": "getHouses",
      "outputs": [
        {
          "components": [
            {
              "internalType": "string",
              "name": "tp",
              "type": "string"
            },
            {
              "internalType": "uint256",
              "name": "price",
              "type": "uint256"
            },
            {
              "internalType": "string",
              "name": "addressHouse",
              "type": "string"
            },
            {
              "internalType": "uint256",
              "name": "surface",
              "type": "uint256"
            },
            {
              "internalType": "string",
              "name": "description",
              "type": "string"
            }
          ],
          "internalType": "struct MarketContract.House[]",
          "name": "",
          "type": "tuple[]"
        }
      ],
      "payable": false,
      "stateMutability": "view",
      "type": "function"
    },
    {
      "constant": true,
      "inputs": [],
      "name": "getTransaction",
      "outputs": [
        {
          "components": [
            {
              "internalType": "uint256",
              "name": "buyerId",
              "type": "uint256"
            },
            {
              "internalType": "uint256",
              "name": "sellerId",
              "type": "uint256"
            },
            {
              "components": [
                {
                  "internalType": "string",
                  "name": "tp",
                  "type": "string"
                },
                {
                  "internalType": "uint256",
                  "name": "price",
                  "type": "uint256"
                },
                {
                  "internalType": "string",
                  "name": "addressHouse",
                  "type": "string"
                },
                {
                  "internalType": "uint256",
                  "name": "surface",
                  "type": "uint256"
                },
                {
                  "internalType": "string",
                  "name": "description",
                  "type": "string"
                }
              ],
              "internalType": "struct MarketContract.House",
              "name": "house",
              "type": "tuple"
            },
            {
              "internalType": "uint256",
              "name": "date",
              "type": "uint256"
            }
          ],
          "internalType": "struct MarketContract.Transaction",
          "name": "",
          "type": "tuple"
        }
      ],
      "payable": false,
      "stateMutability": "view",
      "type": "function"
    },
    {
      "constant": false,
      "inputs": [
        {
          "internalType": "uint256",
          "name": "_id",
          "type": "uint256"
        },
        {
          "internalType": "string",
          "name": "_name",
          "type": "string"
        },
        {
          "internalType": "string",
          "name": "_addressPerson",
          "type": "string"
        },
        {
          "internalType": "bytes",
          "name": "_action",
          "type": "bytes"
        }
      ],
      "name": "setPerson",
      "outputs": [],
      "payable": false,
      "stateMutability": "nonpayable",
      "type": "function"
    },
    {
      "constant": false,
      "inputs": [
        {
          "internalType": "uint256",
          "name": "_idHouse",
          "type": "uint256"
        }
      ],
      "name": "newTransaction",
      "outputs": [
        {
          "components": [
            {
              "internalType": "uint256",
              "name": "buyerId",
              "type": "uint256"
            },
            {
              "internalType": "uint256",
              "name": "sellerId",
              "type": "uint256"
            },
            {
              "components": [
                {
                  "internalType": "string",
                  "name": "tp",
                  "type": "string"
                },
                {
                  "internalType": "uint256",
                  "name": "price",
                  "type": "uint256"
                },
                {
                  "internalType": "string",
                  "name": "addressHouse",
                  "type": "string"
                },
                {
                  "internalType": "uint256",
                  "name": "surface",
                  "type": "uint256"
                },
                {
                  "internalType": "string",
                  "name": "description",
                  "type": "string"
                }
              ],
              "internalType": "struct MarketContract.House",
              "name": "house",
              "type": "tuple"
            },
            {
              "internalType": "uint256",
              "name": "date",
              "type": "uint256"
            }
          ],
          "internalType": "struct MarketContract.Transaction",
          "name": "",
          "type": "tuple"
        }
      ],
      "payable": true,
      "stateMutability": "payable",
      "type": "function"
    }
  ],
  "bytecode": "0x608060405234801561001057600080fd5b50611bd0806100206000396000f3fe6080604052600436106100705760003560e01c80636bd111171161004e5780636bd1111714610106578063aef82f5414610136578063b9e75b9514610161578063fd5f33ec1461018a57610070565b80633107c99d146100755780634cf6c4c7146100b257806359705f81146100db575b600080fd5b34801561008157600080fd5b5061009c6004803603610097919081019061142a565b6101b5565b6040516100a9919061196d565b60405180910390f35b3480156100be57600080fd5b506100d960048036036100d4919081019061136b565b6103e4565b005b3480156100e757600080fd5b506100f0610506565b6040516100fd919061198f565b60405180910390f35b610120600480360361011b919081019061142a565b61074c565b60405161012d919061198f565b60405180910390f35b34801561014257600080fd5b5061014b61080d565b60405161015891906119d3565b60405180910390f35b34801561016d57600080fd5b5061018860048036036101839190810190611453565b61081a565b005b34801561019657600080fd5b5061019f610965565b6040516101ac919061194b565b60405180910390f35b6101bd611114565b600e82815481106101ca57fe5b90600052602060002090600502016040518060a0016040529081600082018054600181600116156101000203166002900480601f01602080910402602001604051908101604052809291908181526020018280546001816001161561010002031660029004801561027c5780601f106102515761010080835404028352916020019161027c565b820191906000526020600020905b81548152906001019060200180831161025f57829003601f168201915b5050505050815260200160018201548152602001600282018054600181600116156101000203166002900480601f0160208091040260200160405190810160405280929190818152602001828054600181600116156101000203166002900480156103285780601f106102fd57610100808354040283529160200191610328565b820191906000526020600020905b81548152906001019060200180831161030b57829003601f168201915b5050505050815260200160038201548152602001600482018054600181600116156101000203166002900480601f0160208091040260200160405190810160405280929190818152602001828054600181600116156101000203166002900480156103d45780601f106103a9576101008083540402835291602001916103d4565b820191906000526020600020905b8154815290600101906020018083116103b757829003601f168201915b5050505050815250509050919050565b60006001600e6040518060a0016040528089815260200188815260200187815260200186815260200185815250908060018154018082558091505090600182039060005260206000209060050201600090919290919091506000820151816000019080519060200190610458929190611143565b5060208201518160010155604082015181600201908051906020019061047f929190611143565b506060820151816003015560808201518160040190805190602001906104a6929190611143565b50505003905033600f600083815260200190815260200160002060006101000a81548173ffffffffffffffffffffffffffffffffffffffff021916908373ffffffffffffffffffffffffffffffffffffffff160217905550505050505050565b61050e6111c3565b60036040518060800160405290816000820154815260200160018201548152602001600282016040518060a0016040529081600082018054600181600116156101000203166002900480601f0160208091040260200160405190810160405280929190818152602001828054600181600116156101000203166002900480156105d85780601f106105ad576101008083540402835291602001916105d8565b820191906000526020600020905b8154815290600101906020018083116105bb57829003601f168201915b5050505050815260200160018201548152602001600282018054600181600116156101000203166002900480601f0160208091040260200160405190810160405280929190818152602001828054600181600116156101000203166002900480156106845780601f1061065957610100808354040283529160200191610684565b820191906000526020600020905b81548152906001019060200180831161066757829003601f168201915b5050505050815260200160038201548152602001600482018054600181600116156101000203166002900480601f0160208091040260200160405190810160405280929190818152602001828054600181600116156101000203166002900480156107305780601f1061070557610100808354040283529160200191610730565b820191906000526020600020905b81548152906001019060200180831161071357829003601f168201915b5050505050815250508152602001600782015481525050905090565b6107546111c3565b600061075e610bbe565b73ffffffffffffffffffffffffffffffffffffffff1690508073ffffffffffffffffffffffffffffffffffffffff166108fc349081150290604051600060405180830381858888f193505050501580156107bc573d6000803e3d6000fd5b506107c683610d63565b7f84ba382eef600272de6b215fad4bd15fbdedc334825d8bf53b2170deb6c26fda60036040516107f691906119b1565b60405180910390a161080783611048565b50919050565b6000600e80549050905090565b60405161082690611936565b6040518091039020818051906020012014156108a4576040518060600160405280858152602001848152602001838152506000808201518160000155602082015181600101908051906020019061087e929190611143565b50604082015181600201908051906020019061089b929190611143565b5090505061095f565b604051806060016040528085815260200184815260200183815250600b6000820151816000015560208201518160010190805190602001906108e7929190611143565b506040820151816002019080519060200190610904929190611143565b5090505033601060008060000154815260200190815260200160002060006101000a81548173ffffffffffffffffffffffffffffffffffffffff021916908373ffffffffffffffffffffffffffffffffffffffff1602179055505b50505050565b6060600e805480602002602001604051908101604052809291908181526020016000905b82821015610bb557838290600052602060002090600502016040518060a0016040529081600082018054600181600116156101000203166002900480601f016020809104026020016040519081016040528092919081815260200182805460018160011615610100020316600290048015610a455780601f10610a1a57610100808354040283529160200191610a45565b820191906000526020600020905b815481529060010190602001808311610a2857829003601f168201915b5050505050815260200160018201548152602001600282018054600181600116156101000203166002900480601f016020809104026020016040519081016040528092919081815260200182805460018160011615610100020316600290048015610af15780601f10610ac657610100808354040283529160200191610af1565b820191906000526020600020905b815481529060010190602001808311610ad457829003601f168201915b5050505050815260200160038201548152602001600482018054600181600116156101000203166002900480601f016020809104026020016040519081016040528092919081815260200182805460018160011615610100020316600290048015610b9d5780601f10610b7257610100808354040283529160200191610b9d565b820191906000526020600020905b815481529060010190602001808311610b8057829003601f168201915b50505050508152505081526020019060010190610989565b50505050905090565b6000610bc86111f1565b600b60405180606001604052908160008201548152602001600182018054600181600116156101000203166002900480601f016020809104026020016040519081016040528092919081815260200182805460018160011615610100020316600290048015610c785780601f10610c4d57610100808354040283529160200191610c78565b820191906000526020600020905b815481529060010190602001808311610c5b57829003601f168201915b50505050508152602001600282018054600181600116156101000203166002900480601f016020809104026020016040519081016040528092919081815260200182805460018160011615610100020316600290048015610d1a5780601f10610cef57610100808354040283529160200191610d1a565b820191906000526020600020905b815481529060010190602001808311610cfd57829003601f168201915b5050505050815250509050601060008260000151815260200190815260200160002060009054906101000a900473ffffffffffffffffffffffffffffffffffffffff1691505090565b6040518060800160405280600b60000154815260200160008001548152602001600e8381548110610d9057fe5b90600052602060002090600502016040518060a0016040529081600082018054600181600116156101000203166002900480601f016020809104026020016040519081016040528092919081815260200182805460018160011615610100020316600290048015610e425780601f10610e1757610100808354040283529160200191610e42565b820191906000526020600020905b815481529060010190602001808311610e2557829003601f168201915b5050505050815260200160018201548152602001600282018054600181600116156101000203166002900480601f016020809104026020016040519081016040528092919081815260200182805460018160011615610100020316600290048015610eee5780601f10610ec357610100808354040283529160200191610eee565b820191906000526020600020905b815481529060010190602001808311610ed157829003601f168201915b5050505050815260200160038201548152602001600482018054600181600116156101000203166002900480601f016020809104026020016040519081016040528092919081815260200182805460018160011615610100020316600290048015610f9a5780601f10610f6f57610100808354040283529160200191610f9a565b820191906000526020600020905b815481529060010190602001808311610f7d57829003601f168201915b505050505081525050815260200142815250600360008201518160000155602082015181600101556040820151816002016000820151816000019080519060200190610fe7929190611143565b5060208201518160010155604082015181600201908051906020019061100e929190611143565b50606082015181600301556080820151816004019080519060200190611035929190611143565b5050506060820151816007015590505050565b3373ffffffffffffffffffffffffffffffffffffffff16600f600083815260200190815260200160002060009054906101000a900473ffffffffffffffffffffffffffffffffffffffff1673ffffffffffffffffffffffffffffffffffffffff16146110b357600080fd5b600e81815481106110c057fe5b9060005260206000209060050201600080820160006110df9190611212565b60018201600090556002820160006110f79190611212565b600382016000905560048201600061110f9190611212565b505050565b6040518060a0016040528060608152602001600081526020016060815260200160008152602001606081525090565b828054600181600116156101000203166002900490600052602060002090601f016020900481019282601f1061118457805160ff19168380011785556111b2565b828001600101855582156111b2579182015b828111156111b1578251825591602001919060010190611196565b5b5090506111bf919061125a565b5090565b604051806080016040528060008152602001600081526020016111e461127f565b8152602001600081525090565b60405180606001604052806000815260200160608152602001606081525090565b50805460018160011615610100020316600290046000825580601f106112385750611257565b601f016020900490600052602060002090810190611256919061125a565b5b50565b61127c91905b80821115611278576000816000905550600101611260565b5090565b90565b6040518060a0016040528060608152602001600081526020016060815260200160008152602001606081525090565b600082601f8301126112bf57600080fd5b81356112d26112cd82611a1b565b6119ee565b915080825260208301602083018583830111156112ee57600080fd5b6112f9838284611afc565b50505092915050565b600082601f83011261131357600080fd5b813561132661132182611a47565b6119ee565b9150808252602083016020830185838301111561134257600080fd5b61134d838284611afc565b50505092915050565b60008135905061136581611b76565b92915050565b600080600080600060a0868803121561138357600080fd5b600086013567ffffffffffffffff81111561139d57600080fd5b6113a988828901611302565b95505060206113ba88828901611356565b945050604086013567ffffffffffffffff8111156113d757600080fd5b6113e388828901611302565b93505060606113f488828901611356565b925050608086013567ffffffffffffffff81111561141157600080fd5b61141d88828901611302565b9150509295509295909350565b60006020828403121561143c57600080fd5b600061144a84828501611356565b91505092915050565b6000806000806080858703121561146957600080fd5b600061147787828801611356565b945050602085013567ffffffffffffffff81111561149457600080fd5b6114a087828801611302565b935050604085013567ffffffffffffffff8111156114bd57600080fd5b6114c987828801611302565b925050606085013567ffffffffffffffff8111156114e657600080fd5b6114f2878288016112ae565b91505092959194509250565b600061150a8383611713565b905092915050565b600061151d82611a98565b6115278185611abb565b93508360208202850161153985611a73565b8060005b85811015611575578484038952815161155685826114fe565b945061156183611aae565b925060208a0199505060018101905061153d565b50829750879550505050505092915050565b600061159282611aa3565b61159c8185611acc565b93506115ac818560208601611b0b565b6115b581611b58565b840191505092915050565b6000815460018116600081146115dd576001811461160357611647565b607f60028304166115ee8187611acc565b955060ff198316865260208601935050611647565b600282046116118187611acc565b955061161c85611a83565b60005b8281101561163e5781548189015260018201915060208101905061161f565b80880195505050505b505092915050565b600061165c600683611add565b91507f73656c6c657200000000000000000000000000000000000000000000000000006000830152600682019050919050565b600060a08301600083015184820360008601526116ac8282611587565b91505060208301516116c16020860182611918565b50604083015184820360408601526116d98282611587565b91505060608301516116ee6060860182611918565b50608083015184820360808601526117068282611587565b9150508091505092915050565b600060a08301600083015184820360008601526117308282611587565b91505060208301516117456020860182611918565b506040830151848203604086015261175d8282611587565b91505060608301516117726060860182611918565b506080830151848203608086015261178a8282611587565b9150508091505092915050565b600060a08301600080840185830360008701526117b483826115c0565b925050600184015490506117c781611b3e565b6117d46020870182611918565b506002840185830360408701526117eb83826115c0565b925050600384015490506117fe81611b3e565b61180b6060870182611918565b5060048401858303608087015261182283826115c0565b925050819250505092915050565b60006080830160008301516118486000860182611918565b50602083015161185b6020860182611918565b50604083015184820360408601526118738282611713565b91505060608301516118886060860182611918565b508091505092915050565b60006080830160008084015490506118aa81611b3e565b6118b76000870182611918565b50600184015490506118c881611b3e565b6118d56020870182611918565b506002840185830360408701526118ec8382611797565b925050600784015490506118ff81611b3e565b61190c6060870182611918565b50819250505092915050565b61192181611af2565b82525050565b61193081611af2565b82525050565b60006119418261164f565b9150819050919050565b600060208201905081810360008301526119658184611512565b905092915050565b60006020820190508181036000830152611987818461168f565b905092915050565b600060208201905081810360008301526119a98184611830565b905092915050565b600060208201905081810360008301526119cb8184611893565b905092915050565b60006020820190506119e86000830184611927565b92915050565b6000604051905081810181811067ffffffffffffffff82111715611a1157600080fd5b8060405250919050565b600067ffffffffffffffff821115611a3257600080fd5b601f19601f8301169050602081019050919050565b600067ffffffffffffffff821115611a5e57600080fd5b601f19601f8301169050602081019050919050565b6000819050602082019050919050565b60008190508160005260206000209050919050565b600081519050919050565b600081519050919050565b6000602082019050919050565b600082825260208201905092915050565b600082825260208201905092915050565b600081905092915050565b6000819050919050565b6000819050919050565b82818337600083830152505050565b60005b83811015611b29578082015181840152602081019050611b0e565b83811115611b38576000848401525b50505050565b6000611b51611b4c83611b69565b611ae8565b9050919050565b6000601f19601f8301169050919050565b60008160001c9050919050565b611b7f81611af2565b8114611b8a57600080fd5b5056fea365627a7a72315820c988353d115f8e075601788c5e181b967ccfbb84dab2860d6c30892a388961266c6578706572696d656e74616cf564736f6c63430005100040",
  "source": "pragma solidity >=0.4.21 <0.7.0;\npragma experimental ABIEncoderV2;\n\n// import \"../models/house.sol\";\n// import \"../models/person.sol\";\n\ncontract MarketContract {\n    struct House {\n        string tp;\n        uint price;\n        string addressHouse;\n        uint surface;\n        string description;\n    }\n\n    struct Transaction {\n        uint buyerId;\n        uint sellerId;\n        House house;\n        uint date;\n    }\n\n    struct Seller {\n        uint id;\n        string name;\n        string addressPerson;\n    }\n\n    struct Buyer {\n        uint id;\n        string name;\n        string addressPerson;\n    }\n\n    Seller private seller;\n    Transaction private transaction;\n    Buyer private buyer;\n    House[] private house;\n    mapping (uint => address) houseOwner;\n    mapping (uint => address) from;\n    mapping (uint => address) to;\n    event logData(Transaction);\n\n    function addHouseToSeller(string memory _tp, uint _price,\n    string memory _addressHouse, uint _surface, string memory _description) public {\n        uint id = house.push(House(_tp, _price, _addressHouse, _surface, _description)) - 1;\n        houseOwner[id] = msg.sender;\n    }\n\n    function getNumberOfHouse() public view returns (uint) {\n        return house.length;\n    }\n\n    function getHouse(uint _id) public view returns (House memory) {\n        return house[_id];\n    }\n\n    function getHouses() external view returns (House[] memory) {\n        return house;\n    }\n\n    function getTransaction() external view returns (Transaction memory) {\n        return transaction;\n    }\n\n    function setTransaction(uint _idHouse) internal {\n        transaction = Transaction(buyer.id, seller.id, house[_idHouse], now);\n    }\n\n    function setPerson(uint _id, string memory _name, string memory _addressPerson, bytes memory _action) public {\n        if(keccak256(_action) == keccak256('seller')) {\n            seller = Seller(_id, _name, _addressPerson);\n        } else {\n            buyer = Buyer(_id, _name, _addressPerson);\n            from[seller.id] = msg.sender;\n        }\n    }\n\n    function getAdressBuyer() internal view returns (address) {\n        //require(bytes(buyer.name).length > 0);\n        Buyer memory _buyer = buyer;\n        return from[_buyer.id];\n    }\n\n    function newTransaction(uint _idHouse) public payable returns(Transaction memory) {\n       //require(msg.value == house[_idHouse].price);\n       address payable _buyerAdress = address(uint(getAdressBuyer()));\n       _buyerAdress.transfer(msg.value);\n       setTransaction(_idHouse);\n       emit logData(transaction);\n       removeHouse(_idHouse);\n    }\n\n    function removeHouse(uint _id) internal {\n        require(houseOwner[_id] == msg.sender);\n        delete house[_id];\n    }\n}\n",
  "sourcePath": "/home/tibdev/Public/www/dev/solidity-market-moc/contracts/MarketContract.sol",
  "compiler": {
    "name": "solc",
    "version": "0.5.16+commit.9c3226ce.Emscripten.clang"
  },
  "schemaVersion": "3.0.23",
  "updatedAt": "2020-03-13T15:03:33.530Z",
  "networkType": "ethereum",
  "devdoc": {
    "methods": {}
  },
  "userdoc": {
    "methods": {}
  }
}