{
  "contractName": "MarketContract",
  "abi": [
    {
      "anonymous": false,
      "inputs": [
        {
          "indexed": false,
          "internalType": "uint256",
          "name": "",
          "type": "uint256"
        }
      ],
      "name": "logData",
      "type": "event"
    },
    {
      "constant": false,
      "inputs": [
        {
          "internalType": "uint256",
          "name": "_id",
          "type": "uint256"
        },
        {
          "internalType": "uint256",
          "name": "_id_seller",
          "type": "uint256"
        },
        {
          "internalType": "string",
          "name": "_name",
          "type": "string"
        },
        {
          "internalType": "uint256",
          "name": "_price",
          "type": "uint256"
        },
        {
          "internalType": "string",
          "name": "_addressHouse",
          "type": "string"
        },
        {
          "internalType": "uint256",
          "name": "_surface",
          "type": "uint256"
        },
        {
          "internalType": "string",
          "name": "_description",
          "type": "string"
        }
      ],
      "name": "addHouseToSeller",
      "outputs": [],
      "payable": false,
      "stateMutability": "nonpayable",
      "type": "function"
    },
    {
      "constant": true,
      "inputs": [],
      "name": "getNumberOfHouse",
      "outputs": [
        {
          "internalType": "uint256",
          "name": "",
          "type": "uint256"
        }
      ],
      "payable": false,
      "stateMutability": "view",
      "type": "function"
    },
    {
      "constant": true,
      "inputs": [
        {
          "internalType": "uint256",
          "name": "_id",
          "type": "uint256"
        }
      ],
      "name": "getHouse",
      "outputs": [
        {
          "components": [
            {
              "internalType": "uint256",
              "name": "id",
              "type": "uint256"
            },
            {
              "internalType": "uint256",
              "name": "id_seller",
              "type": "uint256"
            },
            {
              "internalType": "string",
              "name": "name",
              "type": "string"
            },
            {
              "internalType": "uint256",
              "name": "price",
              "type": "uint256"
            },
            {
              "internalType": "string",
              "name": "addressHouse",
              "type": "string"
            },
            {
              "internalType": "uint256",
              "name": "surface",
              "type": "uint256"
            },
            {
              "internalType": "string",
              "name": "description",
              "type": "string"
            }
          ],
          "internalType": "struct MarketContract.House",
          "name": "",
          "type": "tuple"
        }
      ],
      "payable": false,
      "stateMutability": "view",
      "type": "function"
    },
    {
      "constant": false,
      "inputs": [
        {
          "internalType": "uint256",
          "name": "_id",
          "type": "uint256"
        },
        {
          "internalType": "string",
          "name": "_name",
          "type": "string"
        },
        {
          "internalType": "string",
          "name": "_addressPerson",
          "type": "string"
        },
        {
          "internalType": "bytes",
          "name": "_action",
          "type": "bytes"
        }
      ],
      "name": "setPerson",
      "outputs": [],
      "payable": false,
      "stateMutability": "nonpayable",
      "type": "function"
    },
    {
      "constant": false,
      "inputs": [],
      "name": "newTransaction",
      "outputs": [
        {
          "internalType": "string",
          "name": "",
          "type": "string"
        }
      ],
      "payable": true,
      "stateMutability": "payable",
      "type": "function"
    }
  ],
  "bytecode": "0x608060405234801561001057600080fd5b50610cea806100206000396000f3fe60806040526004361061004a5760003560e01c80633107c99d1461004f578063331940f71461008c578063ab3071b3146100aa578063aef82f54146100d3578063b9e75b95146100fe575b600080fd5b34801561005b57600080fd5b50610076600480360361007191908101906107c3565b610127565b6040516100839190610b2e565b60405180910390f35b61009461036a565b6040516100a19190610b0c565b60405180910390f35b3480156100b657600080fd5b506100d160048036036100cc9190810190610897565b6103a7565b005b3480156100df57600080fd5b506100e8610522565b6040516100f59190610b50565b60405180910390f35b34801561010a57600080fd5b50610125600480360361012091908101906107ec565b61052f565b005b61012f610624565b6006828154811061013c57fe5b90600052602060002090600702016040518060e00160405290816000820154815260200160018201548152602001600282018054600181600116156101000203166002900480601f0160208091040260200160405190810160405280929190818152602001828054600181600116156101000203166002900480156102025780601f106101d757610100808354040283529160200191610202565b820191906000526020600020905b8154815290600101906020018083116101e557829003601f168201915b5050505050815260200160038201548152602001600482018054600181600116156101000203166002900480601f0160208091040260200160405190810160405280929190818152602001828054600181600116156101000203166002900480156102ae5780601f10610283576101008083540402835291602001916102ae565b820191906000526020600020905b81548152906001019060200180831161029157829003601f168201915b5050505050815260200160058201548152602001600682018054600181600116156101000203166002900480601f01602080910402602001604051908101604052809291908181526020018280546001816001161561010002031660029004801561035a5780601f1061032f5761010080835404028352916020019161035a565b820191906000526020600020905b81548152906001019060200180831161033d57829003601f168201915b5050505050815250509050919050565b60606040518060400160405280601081526020017f446f6e65207472616e73616374696f6e00000000000000000000000000000000815250905090565b6000600160066040518060e001604052808b81526020018a815260200189815260200188815260200187815260200186815260200185815250908060018154018082558091505090600182039060005260206000209060070201600090919290919091506000820151816000015560208201518160010155604082015181600201908051906020019061043b929190610661565b50606082015181600301556080820151816004019080519060200190610462929190610661565b5060a0820151816005015560c0820151816006019080519060200190610489929190610661565b5050500390507fb3b2bf2bcb0fe2909178caa857c5e5ac5a2303c1456545350cd8fa64dd1289d9816040516104be9190610b50565b60405180910390a1336007600083815260200190815260200160002060006101000a81548173ffffffffffffffffffffffffffffffffffffffff021916908373ffffffffffffffffffffffffffffffffffffffff1602179055505050505050505050565b6000600680549050905090565b60405161053b90610af7565b6040518091039020818051906020012014156105b95760405180606001604052808581526020018481526020018381525060008082015181600001556020820151816001019080519060200190610593929190610661565b5060408201518160020190805190602001906105b0929190610661565b5090505061061e565b60405180606001604052808581526020018481526020018381525060036000820151816000015560208201518160010190805190602001906105fc929190610661565b506040820151816002019080519060200190610619929190610661565b509050505b50505050565b6040518060e00160405280600081526020016000815260200160608152602001600081526020016060815260200160008152602001606081525090565b828054600181600116156101000203166002900490600052602060002090601f016020900481019282601f106106a257805160ff19168380011785556106d0565b828001600101855582156106d0579182015b828111156106cf5782518255916020019190600101906106b4565b5b5090506106dd91906106e1565b5090565b61070391905b808211156106ff5760008160009055506001016106e7565b5090565b90565b600082601f83011261071757600080fd5b813561072a61072582610b98565b610b6b565b9150808252602083016020830185838301111561074657600080fd5b610751838284610c3d565b50505092915050565b600082601f83011261076b57600080fd5b813561077e61077982610bc4565b610b6b565b9150808252602083016020830185838301111561079a57600080fd5b6107a5838284610c3d565b50505092915050565b6000813590506107bd81610c90565b92915050565b6000602082840312156107d557600080fd5b60006107e3848285016107ae565b91505092915050565b6000806000806080858703121561080257600080fd5b6000610810878288016107ae565b945050602085013567ffffffffffffffff81111561082d57600080fd5b6108398782880161075a565b935050604085013567ffffffffffffffff81111561085657600080fd5b6108628782880161075a565b925050606085013567ffffffffffffffff81111561087f57600080fd5b61088b87828801610706565b91505092959194509250565b600080600080600080600060e0888a0312156108b257600080fd5b60006108c08a828b016107ae565b97505060206108d18a828b016107ae565b965050604088013567ffffffffffffffff8111156108ee57600080fd5b6108fa8a828b0161075a565b955050606061090b8a828b016107ae565b945050608088013567ffffffffffffffff81111561092857600080fd5b6109348a828b0161075a565b93505060a06109458a828b016107ae565b92505060c088013567ffffffffffffffff81111561096257600080fd5b61096e8a828b0161075a565b91505092959891949750929550565b600061098882610bfb565b6109928185610c17565b93506109a2818560208601610c4c565b6109ab81610c7f565b840191505092915050565b60006109c182610bf0565b6109cb8185610c06565b93506109db818560208601610c4c565b6109e481610c7f565b840191505092915050565b60006109fc600683610c28565b91507f73656c6c657200000000000000000000000000000000000000000000000000006000830152600682019050919050565b600060e083016000830151610a476000860182610ad9565b506020830151610a5a6020860182610ad9565b5060408301518482036040860152610a7282826109b6565b9150506060830151610a876060860182610ad9565b5060808301518482036080860152610a9f82826109b6565b91505060a0830151610ab460a0860182610ad9565b5060c083015184820360c0860152610acc82826109b6565b9150508091505092915050565b610ae281610c33565b82525050565b610af181610c33565b82525050565b6000610b02826109ef565b9150819050919050565b60006020820190508181036000830152610b26818461097d565b905092915050565b60006020820190508181036000830152610b488184610a2f565b905092915050565b6000602082019050610b656000830184610ae8565b92915050565b6000604051905081810181811067ffffffffffffffff82111715610b8e57600080fd5b8060405250919050565b600067ffffffffffffffff821115610baf57600080fd5b601f19601f8301169050602081019050919050565b600067ffffffffffffffff821115610bdb57600080fd5b601f19601f8301169050602081019050919050565b600081519050919050565b600081519050919050565b600082825260208201905092915050565b600082825260208201905092915050565b600081905092915050565b6000819050919050565b82818337600083830152505050565b60005b83811015610c6a578082015181840152602081019050610c4f565b83811115610c79576000848401525b50505050565b6000601f19601f8301169050919050565b610c9981610c33565b8114610ca457600080fd5b5056fea365627a7a72315820b7826aabcfb7b60632d0d21f5ec035f96c1a7dfab6599df9e8db4af6daf7a5336c6578706572696d656e74616cf564736f6c63430005100040",
  "source": "pragma solidity >=0.4.21 <0.7.0;\npragma experimental ABIEncoderV2;\n\n// import \"../models/house.sol\";\n// import \"../models/person.sol\";\n\ncontract MarketContract {\n    struct House {\n        uint id;\n        uint id_seller;\n        string name;\n        uint price;\n        string addressHouse;\n        uint surface;\n        string description;\n    }\n\n    struct Seller {\n        uint id;\n        string name;\n        string addressPerson;\n    }\n\n    struct Buyer {\n        uint id;\n        string name;\n        string addressPerson;\n    }\n\n    Seller private seller;\n    Buyer private buyer;\n    House[] private house;\n    mapping (uint => address) houseOwner;\n    event logData(uint);\n\n    function addHouseToSeller(uint _id, uint _id_seller, string memory _name, uint _price,\n    string memory _addressHouse, uint _surface, string memory _description) public {\n        uint id = house.push(House(_id, _id_seller, _name, _price, _addressHouse, _surface, _description)) - 1;\n        emit logData(id);\n        houseOwner[id] = msg.sender;\n    }\n\n    function getNumberOfHouse() public view returns (uint) {\n        return house.length;\n    }\n\n    function getHouse(uint _id) public view returns (House memory) {\n        return house[_id];\n    }\n\n    function setPerson(uint _id, string memory _name, string memory _addressPerson, bytes memory _action) public {\n        if(keccak256(_action) == keccak256('seller')) {\n            seller = Seller(_id, _name, _addressPerson);\n        } else {\n            buyer = Buyer(_id, _name, _addressPerson);\n        }\n    }\n\n    function newTransaction() public payable returns(string memory) {\n       // require(msg.value == house[_idHouse].price);\n       // removeHouse(_idHouse);\n        return \"Done transaction\";\n    }\n\n    function removeHouse(uint _id) internal {\n        require(houseOwner[_id] == msg.sender);\n        delete house[_id];\n    }\n}\n",
  "sourcePath": "/Users/keviinraj/Documents/workspace/solidity-market-moc/contracts/MarketContract.sol",
  "compiler": {
    "name": "solc",
    "version": "0.5.16+commit.9c3226ce.Emscripten.clang"
  },
  "schemaVersion": "3.0.23",
  "updatedAt": "2020-03-13T10:51:37.860Z",
  "networkType": "ethereum",
  "devdoc": {
    "methods": {}
  },
  "userdoc": {
    "methods": {}
  }
}