{
  "contractName": "MarketContract",
  "abi": [
    {
      "constant": false,
      "inputs": [
        {
          "internalType": "uint256",
          "name": "_id",
          "type": "uint256"
        },
        {
          "internalType": "uint256",
          "name": "_id_seller",
          "type": "uint256"
        },
        {
          "internalType": "string",
          "name": "_name",
          "type": "string"
        },
        {
          "internalType": "uint256",
          "name": "_price",
          "type": "uint256"
        },
        {
          "internalType": "string",
          "name": "_addressHouse",
          "type": "string"
        },
        {
          "internalType": "uint256",
          "name": "_surface",
          "type": "uint256"
        },
        {
          "internalType": "string",
          "name": "_description",
          "type": "string"
        }
      ],
      "name": "addHouseToSeller",
      "outputs": [],
      "payable": false,
      "stateMutability": "nonpayable",
      "type": "function"
    },
    {
      "constant": true,
      "inputs": [],
      "name": "getNumberOfHouse",
      "outputs": [
        {
          "internalType": "uint256",
          "name": "",
          "type": "uint256"
        }
      ],
      "payable": false,
      "stateMutability": "view",
      "type": "function"
    },
    {
      "constant": true,
      "inputs": [
        {
          "internalType": "uint256",
          "name": "_id",
          "type": "uint256"
        }
      ],
      "name": "getHouse",
      "outputs": [
        {
          "components": [
            {
              "internalType": "uint256",
              "name": "id",
              "type": "uint256"
            },
            {
              "internalType": "uint256",
              "name": "id_seller",
              "type": "uint256"
            },
            {
              "internalType": "string",
              "name": "name",
              "type": "string"
            },
            {
              "internalType": "uint256",
              "name": "price",
              "type": "uint256"
            },
            {
              "internalType": "string",
              "name": "addressHouse",
              "type": "string"
            },
            {
              "internalType": "uint256",
              "name": "surface",
              "type": "uint256"
            },
            {
              "internalType": "string",
              "name": "description",
              "type": "string"
            }
          ],
          "internalType": "struct MarketContract.House",
          "name": "",
          "type": "tuple"
        }
      ],
      "payable": false,
      "stateMutability": "view",
      "type": "function"
    },
    {
      "constant": false,
      "inputs": [
        {
          "internalType": "uint256",
          "name": "_id",
          "type": "uint256"
        },
        {
          "internalType": "string",
          "name": "_name",
          "type": "string"
        },
        {
          "internalType": "string",
          "name": "_addressPerson",
          "type": "string"
        },
        {
          "internalType": "bytes",
          "name": "_action",
          "type": "bytes"
        }
      ],
      "name": "setPerson",
      "outputs": [],
      "payable": false,
      "stateMutability": "nonpayable",
      "type": "function"
    }
  ],
  "bytecode": "0x608060405234801561001057600080fd5b50610b56806100206000396000f3fe608060405234801561001057600080fd5b506004361061004c5760003560e01c80633107c99d14610051578063ab3071b314610081578063aef82f541461009d578063b9e75b95146100bb575b600080fd5b61006b600480360361006691908101906106a6565b6100d7565b60405161007891906109b6565b60405180910390f35b61009b6004803603610096919081019061077a565b61031a565b005b6100a5610405565b6040516100b291906109d8565b60405180910390f35b6100d560048036036100d091908101906106cf565b610412565b005b6100df610507565b600682815481106100ec57fe5b90600052602060002090600702016040518060e00160405290816000820154815260200160018201548152602001600282018054600181600116156101000203166002900480601f0160208091040260200160405190810160405280929190818152602001828054600181600116156101000203166002900480156101b25780601f10610187576101008083540402835291602001916101b2565b820191906000526020600020905b81548152906001019060200180831161019557829003601f168201915b5050505050815260200160038201548152602001600482018054600181600116156101000203166002900480601f01602080910402602001604051908101604052809291908181526020018280546001816001161561010002031660029004801561025e5780601f106102335761010080835404028352916020019161025e565b820191906000526020600020905b81548152906001019060200180831161024157829003601f168201915b5050505050815260200160058201548152602001600682018054600181600116156101000203166002900480601f01602080910402602001604051908101604052809291908181526020018280546001816001161561010002031660029004801561030a5780601f106102df5761010080835404028352916020019161030a565b820191906000526020600020905b8154815290600101906020018083116102ed57829003601f168201915b5050505050815250509050919050565b60066040518060e001604052808981526020018881526020018781526020018681526020018581526020018481526020018381525090806001815401808255809150509060018203906000526020600020906007020160009091929091909150600082015181600001556020820151816001015560408201518160020190805190602001906103aa929190610544565b506060820151816003015560808201518160040190805190602001906103d1929190610544565b5060a0820151816005015560c08201518160060190805190602001906103f8929190610544565b5050505050505050505050565b6000600680549050905090565b60405161041e906109a1565b60405180910390208180519060200120141561049c5760405180606001604052808581526020018481526020018381525060008082015181600001556020820151816001019080519060200190610476929190610544565b506040820151816002019080519060200190610493929190610544565b50905050610501565b60405180606001604052808581526020018481526020018381525060036000820151816000015560208201518160010190805190602001906104df929190610544565b5060408201518160020190805190602001906104fc929190610544565b509050505b50505050565b6040518060e00160405280600081526020016000815260200160608152602001600081526020016060815260200160008152602001606081525090565b828054600181600116156101000203166002900490600052602060002090601f016020900481019282601f1061058557805160ff19168380011785556105b3565b828001600101855582156105b3579182015b828111156105b2578251825591602001919060010190610597565b5b5090506105c091906105c4565b5090565b6105e691905b808211156105e25760008160009055506001016105ca565b5090565b90565b600082601f8301126105fa57600080fd5b813561060d61060882610a20565b6109f3565b9150808252602083016020830185838301111561062957600080fd5b610634838284610aa9565b50505092915050565b600082601f83011261064e57600080fd5b813561066161065c82610a4c565b6109f3565b9150808252602083016020830185838301111561067d57600080fd5b610688838284610aa9565b50505092915050565b6000813590506106a081610afc565b92915050565b6000602082840312156106b857600080fd5b60006106c684828501610691565b91505092915050565b600080600080608085870312156106e557600080fd5b60006106f387828801610691565b945050602085013567ffffffffffffffff81111561071057600080fd5b61071c8782880161063d565b935050604085013567ffffffffffffffff81111561073957600080fd5b6107458782880161063d565b925050606085013567ffffffffffffffff81111561076257600080fd5b61076e878288016105e9565b91505092959194509250565b600080600080600080600060e0888a03121561079557600080fd5b60006107a38a828b01610691565b97505060206107b48a828b01610691565b965050604088013567ffffffffffffffff8111156107d157600080fd5b6107dd8a828b0161063d565b95505060606107ee8a828b01610691565b945050608088013567ffffffffffffffff81111561080b57600080fd5b6108178a828b0161063d565b93505060a06108288a828b01610691565b92505060c088013567ffffffffffffffff81111561084557600080fd5b6108518a828b0161063d565b91505092959891949750929550565b600061086b82610a78565b6108758185610a83565b9350610885818560208601610ab8565b61088e81610aeb565b840191505092915050565b60006108a6600683610a94565b91507f73656c6c657200000000000000000000000000000000000000000000000000006000830152600682019050919050565b600060e0830160008301516108f16000860182610983565b5060208301516109046020860182610983565b506040830151848203604086015261091c8282610860565b91505060608301516109316060860182610983565b50608083015184820360808601526109498282610860565b91505060a083015161095e60a0860182610983565b5060c083015184820360c08601526109768282610860565b9150508091505092915050565b61098c81610a9f565b82525050565b61099b81610a9f565b82525050565b60006109ac82610899565b9150819050919050565b600060208201905081810360008301526109d081846108d9565b905092915050565b60006020820190506109ed6000830184610992565b92915050565b6000604051905081810181811067ffffffffffffffff82111715610a1657600080fd5b8060405250919050565b600067ffffffffffffffff821115610a3757600080fd5b601f19601f8301169050602081019050919050565b600067ffffffffffffffff821115610a6357600080fd5b601f19601f8301169050602081019050919050565b600081519050919050565b600082825260208201905092915050565b600081905092915050565b6000819050919050565b82818337600083830152505050565b60005b83811015610ad6578082015181840152602081019050610abb565b83811115610ae5576000848401525b50505050565b6000601f19601f8301169050919050565b610b0581610a9f565b8114610b1057600080fd5b5056fea365627a7a72315820c5be673b42cd5dcfb737a6e1a34f2aeda1f6138935249130f4b8ed9c1bc06d556c6578706572696d656e74616cf564736f6c63430005100040",
  "source": "pragma solidity >=0.4.21 <0.7.0;\npragma experimental ABIEncoderV2;\n\n// import \"../models/house.sol\";\n// import \"../models/person.sol\";\n\ncontract MarketContract {\n    struct House {\n        uint id;\n        uint id_seller;\n        string name;\n        uint price;\n        string addressHouse;\n        uint surface;\n        string description;\n    }\n\n    struct Seller {\n        uint id;\n        string name;\n        string addressPerson;\n    }\n\n    struct Buyer {\n        uint id;\n        string name;\n        string addressPerson;\n    }\n    \n    Seller private seller;\n    Buyer private buyer;\n    House[] private house;\n\n    function addHouseToSeller(uint _id, uint _id_seller, string memory _name, uint _price, \n    string memory _addressHouse, uint _surface, string memory _description) public {\n        house.push(House(_id, _id_seller, _name, _price, _addressHouse, _surface, _description));\n    }\n\n    function getNumberOfHouse() public view returns (uint) {\n        return house.length;\n    }\n\n    function getHouse(uint _id) public view returns (House memory) {\n        //require(house[_id].id == _id);\n        return house[_id];\n    }\n\n    function setPerson(uint _id, string memory _name, string memory _addressPerson, bytes memory _action) public {\n        if(keccak256(_action) == keccak256('seller')) {\n            seller = Seller(_id, _name, _addressPerson);\n        } else {\n            buyer = Buyer(_id, _name, _addressPerson);\n        }\n    }\n\n    function newTransaction(uint _id, string memory _name, string memory _addressPerson, uint _idHouse) internal {\n        // 1) recevoir et alimenter les infos du buyer et du seller\n        setPerson(_id, _name, _addressPerson, \"buyer\");\n        setPerson(_id, _name, _addressPerson, \"seller\");\n        // 2) buyer acheter le produit\n        delete house[_idHouse];\n        // 3) vérifier si la somme qui met est égale à la somme qui l'envoie\n        // 4) l'argent du buyer est envoyé au seller et on retire le produit de la liste\n    }\n    \n}",
  "sourcePath": "/home/tibdev/Public/www/dev/solidity-market-moc/contracts/MarketContract.sol",
  "compiler": {
    "name": "solc",
    "version": "0.5.16+commit.9c3226ce.Emscripten.clang"
  },
  "schemaVersion": "3.0.23",
  "updatedAt": "2020-03-12T17:58:14.471Z",
  "devdoc": {
    "methods": {}
  },
  "userdoc": {
    "methods": {}
  }
}