{
  "contractName": "ProcessContract",
  "abi": [
    {
      "constant": false,
      "inputs": [],
      "name": "sellProduct",
      "outputs": [],
      "payable": false,
      "stateMutability": "nonpayable",
      "type": "function"
    },
    {
      "constant": false,
      "inputs": [],
      "name": "buyProduct",
      "outputs": [],
      "payable": false,
      "stateMutability": "nonpayable",
      "type": "function"
    }
  ],
  "bytecode": "0x6080604052348015600f57600080fd5b5060808061001e6000396000f3fe6080604052348015600f57600080fd5b506004361060325760003560e01c80639ada9b7b146037578063b7a226e614603f575b600080fd5b603d6047565b005b60456049565b005b565b56fea265627a7a723158200e5873f575f9af6beb389d0b469461e2a96fcbac5ee93d9da9ce3c2e7f0d786964736f6c63430005100032",
  "source": "pragma solidity >=0.4.21 <0.7.0;\n\nimport \"../models/house.sol\";\nimport \"../models/person.sol\";\n\ncontract ProcessContract {\n    PersonModel person;\n\n    function sellProduct() public {\n\n    }\n    function buyProduct() public {\n\n    }\n}",
  "sourcePath": "/home/tibdev/Public/www/dev/solidity-market-moc/contracts/process-contract.sol",
  "compiler": {
    "name": "solc",
    "version": "0.5.16+commit.9c3226ce.Emscripten.clang"
  },
  "schemaVersion": "3.0.23",
  "updatedAt": "2020-03-12T13:28:07.631Z",
  "devdoc": {
    "methods": {}
  },
  "userdoc": {
    "methods": {}
  }
}